{
  "contractName": "Vote",
  "abi": [
    {
      "inputs": [],
      "payable": false,
      "stateMutability": "nonpayable",
      "type": "constructor"
    },
    {
      "anonymous": false,
      "inputs": [
        {
          "indexed": false,
          "internalType": "uint256",
          "name": "id",
          "type": "uint256"
        },
        {
          "indexed": false,
          "internalType": "string",
          "name": "name",
          "type": "string"
        },
        {
          "indexed": false,
          "internalType": "uint256",
          "name": "voteCount",
          "type": "uint256"
        }
      ],
      "name": "createCanEvent",
      "type": "event"
    },
    {
      "anonymous": false,
      "inputs": [
        {
          "indexed": false,
          "internalType": "uint256",
          "name": "id",
          "type": "uint256"
        },
        {
          "indexed": false,
          "internalType": "string",
          "name": "name",
          "type": "string"
        },
        {
          "indexed": false,
          "internalType": "uint256",
          "name": "voteCount",
          "type": "uint256"
        }
      ],
      "name": "votedEvent",
      "type": "event"
    },
    {
      "constant": true,
      "inputs": [
        {
          "internalType": "uint256",
          "name": "",
          "type": "uint256"
        }
      ],
      "name": "candidates",
      "outputs": [
        {
          "internalType": "uint256",
          "name": "id",
          "type": "uint256"
        },
        {
          "internalType": "string",
          "name": "name",
          "type": "string"
        },
        {
          "internalType": "uint256",
          "name": "age",
          "type": "uint256"
        },
        {
          "internalType": "string",
          "name": "party",
          "type": "string"
        },
        {
          "internalType": "uint256",
          "name": "voteCount",
          "type": "uint256"
        }
      ],
      "payable": false,
      "stateMutability": "view",
      "type": "function"
    },
    {
      "constant": true,
      "inputs": [],
      "name": "candidatesCount",
      "outputs": [
        {
          "internalType": "uint256",
          "name": "",
          "type": "uint256"
        }
      ],
      "payable": false,
      "stateMutability": "view",
      "type": "function"
    },
    {
      "constant": true,
      "inputs": [],
      "name": "voteName",
      "outputs": [
        {
          "internalType": "string",
          "name": "",
          "type": "string"
        }
      ],
      "payable": false,
      "stateMutability": "view",
      "type": "function"
    },
    {
      "constant": true,
      "inputs": [
        {
          "internalType": "address",
          "name": "",
          "type": "address"
        }
      ],
      "name": "voters",
      "outputs": [
        {
          "internalType": "bool",
          "name": "",
          "type": "bool"
        }
      ],
      "payable": false,
      "stateMutability": "view",
      "type": "function"
    },
    {
      "constant": false,
      "inputs": [
        {
          "internalType": "string",
          "name": "_name",
          "type": "string"
        },
        {
          "internalType": "uint256",
          "name": "_age",
          "type": "uint256"
        },
        {
          "internalType": "string",
          "name": "_party",
          "type": "string"
        }
      ],
      "name": "createCandidate",
      "outputs": [],
      "payable": false,
      "stateMutability": "nonpayable",
      "type": "function"
    },
    {
      "constant": false,
      "inputs": [
        {
          "internalType": "uint256",
          "name": "_candidateId",
          "type": "uint256"
        }
      ],
      "name": "vote",
      "outputs": [],
      "payable": false,
      "stateMutability": "nonpayable",
      "type": "function"
    }
  ],
  "bytecode": "0x608060405234801561001057600080fd5b506040518060400160405280600d81526020017f43616e616469616e20566f7465000000000000000000000000000000000000008152506000908051906020019061005c929190610062565b50610107565b828054600181600116156101000203166002900490600052602060002090601f016020900481019282601f106100a357805160ff19168380011785556100d1565b828001600101855582156100d1579182015b828111156100d05782518255916020019190600101906100b5565b5b5090506100de91906100e2565b5090565b61010491905b808211156101005760008160009055506001016100e8565b5090565b90565b610b33806101166000396000f3fe608060405234801561001057600080fd5b50600436106100625760003560e01c80630121b93f1461006757806302d72fe5146100955780632d35a8a2146101f15780633477ee2e1461020f57806386f5114e14610337578063a3ec138d146103ba575b600080fd5b6100936004803603602081101561007d57600080fd5b8101908080359060200190929190505050610416565b005b6101ef600480360360608110156100ab57600080fd5b81019080803590602001906401000000008111156100c857600080fd5b8201836020820111156100da57600080fd5b803590602001918460018302840111640100000000831117156100fc57600080fd5b91908080601f016020809104026020016040519081016040528093929190818152602001838380828437600081840152601f19601f820116905080830192505050505050509192919290803590602001909291908035906020019064010000000081111561016957600080fd5b82018360208201111561017b57600080fd5b8035906020019184600183028401116401000000008311171561019d57600080fd5b91908080601f016020809104026020016040519081016040528093929190818152602001838380828437600081840152601f19601f8201169050808301925050505050505091929192905050506106cf565b005b6101f961082f565b6040518082815260200191505060405180910390f35b61023b6004803603602081101561022557600080fd5b8101908080359060200190929190505050610835565b604051808681526020018060200185815260200180602001848152602001838103835287818151815260200191508051906020019080838360005b83811015610291578082015181840152602081019050610276565b50505050905090810190601f1680156102be5780820380516001836020036101000a031916815260200191505b50838103825285818151815260200191508051906020019080838360005b838110156102f75780820151818401526020810190506102dc565b50505050905090810190601f1680156103245780820380516001836020036101000a031916815260200191505b5097505050505050505060405180910390f35b61033f61099b565b6040518080602001828103825283818151815260200191508051906020019080838360005b8381101561037f578082015181840152602081019050610364565b50505050905090810190601f1680156103ac5780820380516001836020036101000a031916815260200191505b509250505060405180910390f35b6103fc600480360360208110156103d057600080fd5b81019080803573ffffffffffffffffffffffffffffffffffffffff169060200190929190505050610a39565b604051808215151515815260200191505060405180910390f35b600260003373ffffffffffffffffffffffffffffffffffffffff1673ffffffffffffffffffffffffffffffffffffffff16815260200190815260200160002060009054906101000a900460ff16156104d6576040517f08c379a00000000000000000000000000000000000000000000000000000000081526004018080602001828103825260178152602001807f596f75206861766520616c726561647920766f7465642e00000000000000000081525060200191505060405180910390fd5b6000811180156104e857506001548111155b61055a576040517f08c379a00000000000000000000000000000000000000000000000000000000081526004018080602001828103825260168152602001807f4e6f7420612076616c69642063616e6469646174652e0000000000000000000081525060200191505060405180910390fd5b6001600260003373ffffffffffffffffffffffffffffffffffffffff1673ffffffffffffffffffffffffffffffffffffffff16815260200190815260200160002060006101000a81548160ff02191690831515021790555060036000828152602001908152602001600020600401600081548092919060010191905055507fa288a4e6f1415548390de6020a24767dcea0ba46d77e8334da257cb21651e3c98160036000848152602001908152602001600020600101600360008581526020019081526020016000206004015460405180848152602001806020018381526020018281038252848181546001816001161561010002031660029004815260200191508054600181600116156101000203166002900480156106bc5780601f10610691576101008083540402835291602001916106bc565b820191906000526020600020905b81548152906001019060200180831161069f57829003601f168201915b505094505050505060405180910390a150565b6001600081548092919060010191905055506040518060a0016040528060015481526020018481526020018381526020018281526020016000815250600360006001548152602001908152602001600020600082015181600001556020820151816001019080519060200190610746929190610a59565b5060408201518160020155606082015181600301908051906020019061076d929190610a59565b50608082015181600401559050507f545eb5c2d6d9cd00e4122fffec42103f664e8bf14773d698c6b71f804e4809146001548460006040518084815260200180602001838152602001828103825284818151815260200191508051906020019080838360005b838110156107ee5780820151818401526020810190506107d3565b50505050905090810190601f16801561081b5780820380516001836020036101000a031916815260200191505b5094505050505060405180910390a1505050565b60015481565b6003602052806000526040600020600091509050806000015490806001018054600181600116156101000203166002900480601f0160208091040260200160405190810160405280929190818152602001828054600181600116156101000203166002900480156108e75780601f106108bc576101008083540402835291602001916108e7565b820191906000526020600020905b8154815290600101906020018083116108ca57829003601f168201915b505050505090806002015490806003018054600181600116156101000203166002900480601f01602080910402602001604051908101604052809291908181526020018280546001816001161561010002031660029004801561098b5780601f106109605761010080835404028352916020019161098b565b820191906000526020600020905b81548152906001019060200180831161096e57829003601f168201915b5050505050908060040154905085565b60008054600181600116156101000203166002900480601f016020809104026020016040519081016040528092919081815260200182805460018160011615610100020316600290048015610a315780601f10610a0657610100808354040283529160200191610a31565b820191906000526020600020905b815481529060010190602001808311610a1457829003601f168201915b505050505081565b60026020528060005260406000206000915054906101000a900460ff1681565b828054600181600116156101000203166002900490600052602060002090601f016020900481019282601f10610a9a57805160ff1916838001178555610ac8565b82800160010185558215610ac8579182015b82811115610ac7578251825591602001919060010190610aac565b5b509050610ad59190610ad9565b5090565b610afb91905b80821115610af7576000816000905550600101610adf565b5090565b9056fea265627a7a72315820a089065db7218a3ac60b30628a4dcf387f49e44cc8bc2cce4dd0aad80e21292c64736f6c63430005100032",
  "source": "pragma solidity >=0.4.21 <0.7.0;\n\ncontract Vote {\n\n    string public voteName;\n    uint public candidatesCount;\n\n    struct Candidate {\n        uint id;\n        string name;\n        uint age;\n        string party;\n        uint voteCount;\n    }\n    mapping(address => bool) public voters;\n\n    mapping(uint => Candidate) public candidates;\n\n    event createCanEvent (\n        uint id,\n        string name,\n        uint voteCount\n    );\n\n    event votedEvent (\n        uint id,\n        string name,\n        uint voteCount\n    );\n\n    constructor() public {\n        voteName = 'Canadian Vote';\n    }\n\n    function createCandidate (string memory _name, uint _age, string memory _party) public {\n        candidatesCount++;\n        candidates[candidatesCount] = Candidate(candidatesCount, _name, _age, _party, 0);\n        emit createCanEvent(candidatesCount, _name, 0);\n    }\n\n    function vote (uint _candidateId) public {\n        // require that they haven't voted before\n        require(!voters[msg.sender], 'You have already voted.');\n\n        // require a valid candidate\n        require(_candidateId > 0 && _candidateId <= candidatesCount, 'Not a valid candidate.');\n\n        // record that voter has voted\n        voters[msg.sender] = true;\n\n        // update candidate vote Count\n        candidates[_candidateId].voteCount++;\n\n        // trigger voted event\n        emit votedEvent(_candidateId, candidates[_candidateId].name, candidates[_candidateId].voteCount);\n    }\n}\n",
  "sourcePath": "/Users/xiaojuntian/UBC/voteSystemDapp/contracts/Vote.sol",
  "compiler": {
    "name": "solc",
    "version": "0.5.16+commit.9c3226ce.Emscripten.clang"
  },
  "schemaVersion": "3.0.23",
  "updatedAt": "2020-03-15T01:49:17.773Z",
  "networkType": "ethereum",
  "devdoc": {
    "methods": {}
  },
  "userdoc": {
    "methods": {}
  }
}