{
  "contractName": "Vote",
  "abi": [
    {
      "inputs": [
        {
          "internalType": "uint256",
          "name": "_addStartDate",
          "type": "uint256"
        },
        {
          "internalType": "uint256",
          "name": "_addEndDate",
          "type": "uint256"
        },
        {
          "internalType": "uint256",
          "name": "_startDate",
          "type": "uint256"
        },
        {
          "internalType": "uint256",
          "name": "_endDate",
          "type": "uint256"
        },
        {
          "internalType": "uint256",
          "name": "_maxNominatedNum",
          "type": "uint256"
        },
        {
          "internalType": "uint256",
          "name": "_totalShareNum",
          "type": "uint256"
        },
        {
          "internalType": "uint256",
          "name": "_maxShareNum",
          "type": "uint256"
        },
        {
          "internalType": "uint256",
          "name": "_voteType",
          "type": "uint256"
        }
      ],
      "payable": false,
      "stateMutability": "nonpayable",
      "type": "constructor"
    },
    {
      "anonymous": false,
      "inputs": [
        {
          "indexed": false,
          "internalType": "uint256",
          "name": "candidateId",
          "type": "uint256"
        },
        {
          "indexed": false,
          "internalType": "string",
          "name": "candidateName",
          "type": "string"
        },
        {
          "indexed": false,
          "internalType": "string",
          "name": "candidatePhoto",
          "type": "string"
        },
        {
          "indexed": false,
          "internalType": "string",
          "name": "candidateInfo",
          "type": "string"
        },
        {
          "indexed": false,
          "internalType": "uint256",
          "name": "candidateTotalVote",
          "type": "uint256"
        }
      ],
      "name": "addCandidate",
      "type": "event"
    },
    {
      "anonymous": false,
      "inputs": [
        {
          "indexed": false,
          "internalType": "address",
          "name": "voter",
          "type": "address"
        },
        {
          "indexed": false,
          "internalType": "uint256",
          "name": "stock",
          "type": "uint256"
        }
      ],
      "name": "allocateStock",
      "type": "event"
    },
    {
      "anonymous": false,
      "inputs": [
        {
          "indexed": false,
          "internalType": "uint256",
          "name": "candidateId",
          "type": "uint256"
        },
        {
          "indexed": false,
          "internalType": "uint256",
          "name": "inputId",
          "type": "uint256"
        }
      ],
      "name": "lookForInfo",
      "type": "event"
    },
    {
      "anonymous": false,
      "inputs": [
        {
          "indexed": true,
          "internalType": "address",
          "name": "myAddr",
          "type": "address"
        },
        {
          "indexed": false,
          "internalType": "uint256[]",
          "name": "recordID",
          "type": "uint256[]"
        },
        {
          "indexed": false,
          "internalType": "uint256[]",
          "name": "candidateID",
          "type": "uint256[]"
        },
        {
          "indexed": false,
          "internalType": "uint256[]",
          "name": "voteNum",
          "type": "uint256[]"
        }
      ],
      "name": "lookUpMyVote",
      "type": "event"
    },
    {
      "anonymous": false,
      "inputs": [
        {
          "indexed": false,
          "internalType": "uint256",
          "name": "candidateId",
          "type": "uint256"
        },
        {
          "indexed": false,
          "internalType": "uint256",
          "name": "voteNum",
          "type": "uint256"
        }
      ],
      "name": "newVoteRecord",
      "type": "event"
    },
    {
      "anonymous": false,
      "inputs": [
        {
          "indexed": false,
          "internalType": "uint256",
          "name": "voteName",
          "type": "uint256"
        },
        {
          "indexed": false,
          "internalType": "uint256",
          "name": "voteTime",
          "type": "uint256"
        },
        {
          "indexed": false,
          "internalType": "bool",
          "name": "hasVoted",
          "type": "bool"
        }
      ],
      "name": "vote",
      "type": "event"
    },
    {
      "constant": true,
      "inputs": [],
      "name": "addCandidateEndDate",
      "outputs": [
        {
          "internalType": "uint256",
          "name": "",
          "type": "uint256"
        }
      ],
      "payable": false,
      "stateMutability": "view",
      "type": "function"
    },
    {
      "constant": true,
      "inputs": [],
      "name": "addCandidateStartDate",
      "outputs": [
        {
          "internalType": "uint256",
          "name": "",
          "type": "uint256"
        }
      ],
      "payable": false,
      "stateMutability": "view",
      "type": "function"
    },
    {
      "constant": true,
      "inputs": [
        {
          "internalType": "uint256",
          "name": "",
          "type": "uint256"
        }
      ],
      "name": "candidates",
      "outputs": [
        {
          "internalType": "uint256",
          "name": "candidateId",
          "type": "uint256"
        },
        {
          "internalType": "string",
          "name": "candidateName",
          "type": "string"
        },
        {
          "internalType": "string",
          "name": "candidatePhoto",
          "type": "string"
        },
        {
          "internalType": "string",
          "name": "candidateInfo",
          "type": "string"
        },
        {
          "internalType": "uint256",
          "name": "candidateTotalVote",
          "type": "uint256"
        }
      ],
      "payable": false,
      "stateMutability": "view",
      "type": "function"
    },
    {
      "constant": true,
      "inputs": [],
      "name": "currentTotalShareNum",
      "outputs": [
        {
          "internalType": "uint256",
          "name": "",
          "type": "uint256"
        }
      ],
      "payable": false,
      "stateMutability": "view",
      "type": "function"
    },
    {
      "constant": true,
      "inputs": [],
      "name": "maxNominatedNum",
      "outputs": [
        {
          "internalType": "uint256",
          "name": "",
          "type": "uint256"
        }
      ],
      "payable": false,
      "stateMutability": "view",
      "type": "function"
    },
    {
      "constant": true,
      "inputs": [],
      "name": "maxShareNum",
      "outputs": [
        {
          "internalType": "uint256",
          "name": "",
          "type": "uint256"
        }
      ],
      "payable": false,
      "stateMutability": "view",
      "type": "function"
    },
    {
      "constant": true,
      "inputs": [],
      "name": "totalCandidateNumber",
      "outputs": [
        {
          "internalType": "uint256",
          "name": "",
          "type": "uint256"
        }
      ],
      "payable": false,
      "stateMutability": "view",
      "type": "function"
    },
    {
      "constant": true,
      "inputs": [],
      "name": "totalShareNum",
      "outputs": [
        {
          "internalType": "uint256",
          "name": "",
          "type": "uint256"
        }
      ],
      "payable": false,
      "stateMutability": "view",
      "type": "function"
    },
    {
      "constant": true,
      "inputs": [],
      "name": "voteDeployer",
      "outputs": [
        {
          "internalType": "address",
          "name": "",
          "type": "address"
        }
      ],
      "payable": false,
      "stateMutability": "view",
      "type": "function"
    },
    {
      "constant": true,
      "inputs": [],
      "name": "voteEndDate",
      "outputs": [
        {
          "internalType": "uint256",
          "name": "",
          "type": "uint256"
        }
      ],
      "payable": false,
      "stateMutability": "view",
      "type": "function"
    },
    {
      "constant": true,
      "inputs": [],
      "name": "voteName",
      "outputs": [
        {
          "internalType": "string",
          "name": "",
          "type": "string"
        }
      ],
      "payable": false,
      "stateMutability": "view",
      "type": "function"
    },
    {
      "constant": true,
      "inputs": [],
      "name": "voteStartDate",
      "outputs": [
        {
          "internalType": "uint256",
          "name": "",
          "type": "uint256"
        }
      ],
      "payable": false,
      "stateMutability": "view",
      "type": "function"
    },
    {
      "constant": true,
      "inputs": [],
      "name": "voteType",
      "outputs": [
        {
          "internalType": "uint256",
          "name": "",
          "type": "uint256"
        }
      ],
      "payable": false,
      "stateMutability": "view",
      "type": "function"
    },
    {
      "constant": true,
      "inputs": [
        {
          "internalType": "address",
          "name": "",
          "type": "address"
        }
      ],
      "name": "voters",
      "outputs": [
        {
          "internalType": "uint256",
          "name": "voteTime",
          "type": "uint256"
        },
        {
          "internalType": "uint256",
          "name": "stock",
          "type": "uint256"
        },
        {
          "internalType": "uint256",
          "name": "totalVoteNum",
          "type": "uint256"
        },
        {
          "internalType": "uint256",
          "name": "voteUsed",
          "type": "uint256"
        },
        {
          "internalType": "uint256",
          "name": "numOfPeopleNominated",
          "type": "uint256"
        },
        {
          "internalType": "bool",
          "name": "hasVoted",
          "type": "bool"
        }
      ],
      "payable": false,
      "stateMutability": "view",
      "type": "function"
    },
    {
      "constant": false,
      "inputs": [
        {
          "internalType": "string",
          "name": "_cadidateName",
          "type": "string"
        },
        {
          "internalType": "string",
          "name": "_candidatePhoto",
          "type": "string"
        },
        {
          "internalType": "string",
          "name": "_cadidateInfo",
          "type": "string"
        },
        {
          "internalType": "uint256",
          "name": "_currentDate",
          "type": "uint256"
        }
      ],
      "name": "createNewCandidate",
      "outputs": [],
      "payable": false,
      "stateMutability": "nonpayable",
      "type": "function"
    },
    {
      "constant": false,
      "inputs": [
        {
          "internalType": "address",
          "name": "_voterAddr",
          "type": "address"
        },
        {
          "internalType": "uint256",
          "name": "_stockNum",
          "type": "uint256"
        }
      ],
      "name": "allocateShare",
      "outputs": [],
      "payable": false,
      "stateMutability": "nonpayable",
      "type": "function"
    },
    {
      "constant": false,
      "inputs": [
        {
          "internalType": "uint256",
          "name": "_candidateId",
          "type": "uint256"
        },
        {
          "internalType": "uint256",
          "name": "_voteNum",
          "type": "uint256"
        },
        {
          "internalType": "uint256",
          "name": "_currentDate",
          "type": "uint256"
        }
      ],
      "name": "voteForCandidate",
      "outputs": [],
      "payable": false,
      "stateMutability": "nonpayable",
      "type": "function"
    },
    {
      "constant": false,
      "inputs": [],
      "name": "lookUpVoteRecord",
      "outputs": [],
      "payable": false,
      "stateMutability": "nonpayable",
      "type": "function"
    },
    {
      "constant": false,
      "inputs": [
        {
          "internalType": "uint256",
          "name": "_candidateId",
          "type": "uint256"
        },
        {
          "internalType": "uint256",
          "name": "_newVote",
          "type": "uint256"
        },
        {
          "internalType": "uint256",
          "name": "_voteInfoNum",
          "type": "uint256"
        },
        {
          "internalType": "uint256",
          "name": "_currentDate",
          "type": "uint256"
        }
      ],
      "name": "changeMyVote",
      "outputs": [],
      "payable": false,
      "stateMutability": "nonpayable",
      "type": "function"
    }
  ],
  "bytecode": "0x6080604052600060065560016008556000600b556000600c60006101000a81548160ff0219169083151502179055503480156200003b57600080fd5b5060405162003f7b38038062003f7b83398181016040526101008110156200006257600080fd5b8101908080519060200190929190805190602001909291908051906020019092919080519060200190929190805190602001909291908051906020019092919080519060200190929190805190602001909291905050506040518060400160405280601481526020017f626c6f636b20636861696e20766f74652061707000000000000000000000000081525060009080519060200190620001069291906200018e565b5087600181905550866002819055508560038190555084600481905550806008819055508360078190555033600560006101000a81548173ffffffffffffffffffffffffffffffffffffffff021916908373ffffffffffffffffffffffffffffffffffffffff1602179055508260098190555081600a8190555050505050505050506200023d565b828054600181600116156101000203166002900490600052602060002090601f016020900481019282601f10620001d157805160ff191683800117855562000202565b8280016001018555821562000202579182015b8281111562000201578251825591602001919060010190620001e4565b5b50905062000211919062000215565b5090565b6200023a91905b80821115620002365760008160009055506001016200021c565b5090565b90565b613d2e806200024d6000396000f3fe608060405234801561001057600080fd5b50600436106101215760003560e01c80637d1a3d37116100ad578063a8d58baf11610071578063a8d58baf14610726578063b342f78614610744578063d2ff495f14610792578063e09c3521146107dc578063ee38d82f146107fa57610121565b80637d1a3d37146105ca57806384d27f7f146105e857806386f5114e14610606578063920bba6c14610689578063a3ec138d146106a757610121565b806335d9e409116100f457806335d9e40914610510578063417d14cb1461052e5780635fed5c171461057057806368e1b4311461058e578063708b5eca146105ac57610121565b80631211a75b146101265780631df24d3d146101725780632c286b59146103655780633477ee2e14610383575b600080fd5b6101706004803603608081101561013c57600080fd5b8101908080359060200190929190803590602001909291908035906020019092919080359060200190929190505050610804565b005b6103636004803603608081101561018857600080fd5b81019080803590602001906401000000008111156101a557600080fd5b8201836020820111156101b757600080fd5b803590602001918460018302840111640100000000831117156101d957600080fd5b91908080601f016020809104026020016040519081016040528093929190818152602001838380828437600081840152601f19601f8201169050808301925050505050505091929192908035906020019064010000000081111561023c57600080fd5b82018360208201111561024e57600080fd5b8035906020019184600183028401116401000000008311171561027057600080fd5b91908080601f016020809104026020016040519081016040528093929190818152602001838380828437600081840152601f19601f820116905080830192505050505050509192919290803590602001906401000000008111156102d357600080fd5b8201836020820111156102e557600080fd5b8035906020019184600183028401116401000000008311171561030757600080fd5b91908080601f016020809104026020016040519081016040528093929190818152602001838380828437600081840152601f19601f82011690508083019250505050505050919291929080359060200190929190505050611a1f565b005b61036d611e94565b6040518082815260200191505060405180910390f35b6103af6004803603602081101561039957600080fd5b8101908080359060200190929190505050611e9a565b60405180868152602001806020018060200180602001858152602001848103845288818151815260200191508051906020019080838360005b838110156104035780820151818401526020810190506103e8565b50505050905090810190601f1680156104305780820380516001836020036101000a031916815260200191505b50848103835287818151815260200191508051906020019080838360005b8381101561046957808201518184015260208101905061044e565b50505050905090810190601f1680156104965780820380516001836020036101000a031916815260200191505b50848103825286818151815260200191508051906020019080838360005b838110156104cf5780820151818401526020810190506104b4565b50505050905090810190601f1680156104fc5780820380516001836020036101000a031916815260200191505b509850505050505050505060405180910390f35b610518612098565b6040518082815260200191505060405180910390f35b61056e6004803603606081101561054457600080fd5b8101908080359060200190929190803590602001909291908035906020019092919050505061209e565b005b610578613158565b6040518082815260200191505060405180910390f35b61059661315e565b6040518082815260200191505060405180910390f35b6105b4613164565b6040518082815260200191505060405180910390f35b6105d261316a565b6040518082815260200191505060405180910390f35b6105f0613170565b6040518082815260200191505060405180910390f35b61060e613176565b6040518080602001828103825283818151815260200191508051906020019080838360005b8381101561064e578082015181840152602081019050610633565b50505050905090810190601f16801561067b5780820380516001836020036101000a031916815260200191505b509250505060405180910390f35b610691613214565b6040518082815260200191505060405180910390f35b6106e9600480360360208110156106bd57600080fd5b81019080803573ffffffffffffffffffffffffffffffffffffffff16906020019092919050505061321a565b6040518087815260200186815260200185815260200184815260200183815260200182151515158152602001965050505050505060405180910390f35b61072e613263565b6040518082815260200191505060405180910390f35b6107906004803603604081101561075a57600080fd5b81019080803573ffffffffffffffffffffffffffffffffffffffff16906020019092919080359060200190929190505050613269565b005b61079a613592565b604051808273ffffffffffffffffffffffffffffffffffffffff1673ffffffffffffffffffffffffffffffffffffffff16815260200191505060405180910390f35b6107e46135b8565b6040518082815260200191505060405180910390f35b6108026135be565b005b60035481118015610816575060045481105b61086b576040517f08c379a0000000000000000000000000000000000000000000000000000000008152600401808060200182810382526039815260200180613b956039913960400191505060405180910390fd5b60008411801561087d57506006548411155b6108ef576040517f08c379a00000000000000000000000000000000000000000000000000000000081526004018080602001828103825260118152602001807f43616e64696461746520696e76616c696400000000000000000000000000000081525060200191505060405180910390fd5b60011515600e60003373ffffffffffffffffffffffffffffffffffffffff1673ffffffffffffffffffffffffffffffffffffffff16815260200190815260200160002060060160009054906101000a900460ff16151514801561099457506003600e60003373ffffffffffffffffffffffffffffffffffffffff1673ffffffffffffffffffffffffffffffffffffffff16815260200190815260200160002060000154105b6109e9576040517f08c379a0000000000000000000000000000000000000000000000000000000008152600401808060200182810382526038815260200180613c2a6038913960400191505060405180910390fd5b6000600e60003373ffffffffffffffffffffffffffffffffffffffff1673ffffffffffffffffffffffffffffffffffffffff16815260200190815260200160002060050160006001850381526020019081526020016000206001015411610a9b576040517f08c379a000000000000000000000000000000000000000000000000000000000815260040180806020018281038252603a815260200180613bf0603a913960400191505060405180910390fd5b610aa36138db565b600e60003373ffffffffffffffffffffffffffffffffffffffff1673ffffffffffffffffffffffffffffffffffffffff1681526020019081526020016000206040518060c001604052908160008201548152602001600182015481526020016002820154815260200160038201548152602001600482015481526020016006820160009054906101000a900460ff1615151515815250509050610b44613913565b600e60003373ffffffffffffffffffffffffffffffffffffffff1673ffffffffffffffffffffffffffffffffffffffff16815260200190815260200160002060050160006001860381526020019081526020016000206040518060400160405290816000820154815260200160018201548152505090507fd13029edcde76ad9022a55453085b104be53c8f29ce3199f94b19445f92db5ab81600001518260200151604051808381526020018281526020019250505060405180910390a160026008541415610c9e5760008160200151905082604001518682856060015103011115610c98576040517f08c379a000000000000000000000000000000000000000000000000000000000815260040180806020018281038252601c8152602001807f596f7520646f6e2774206861766520736f206d616e7920766f7465730000000081525060200191505060405180910390fd5b50610eb3565b600080905060008090505b600e60003373ffffffffffffffffffffffffffffffffffffffff1673ffffffffffffffffffffffffffffffffffffffff168152602001908152602001600020600401548111610eb0577fd13029edcde76ad9022a55453085b104be53c8f29ce3199f94b19445f92db5ab600e60003373ffffffffffffffffffffffffffffffffffffffff1673ffffffffffffffffffffffffffffffffffffffff16815260200190815260200160002060050160008381526020019081526020016000206000015489604051808381526020018281526020019250505060405180910390a187600e60003373ffffffffffffffffffffffffffffffffffffffff1673ffffffffffffffffffffffffffffffffffffffff168152602001908152602001600020600501600083815260200190815260200160002060000154148015610e4257506000600e60003373ffffffffffffffffffffffffffffffffffffffff1673ffffffffffffffffffffffffffffffffffffffff168152602001908152602001600020600501600083815260200190815260200160002060010154115b15610e4c57600191505b8115610ea3576040517f08c379a0000000000000000000000000000000000000000000000000000000008152600401808060200182810382526022815260200180613bce6022913960400191505060405180910390fd5b8080600101915050610ca9565b50505b600e60003373ffffffffffffffffffffffffffffffffffffffff1673ffffffffffffffffffffffffffffffffffffffff16815260200190815260200160002060000160008154809291906001019190505550610f0d61392d565b600d6000836000015181526020019081526020016000206040518060a001604052908160008201548152602001600182018054600181600116156101000203166002900480601f016020809104026020016040519081016040528092919081815260200182805460018160011615610100020316600290048015610fd25780601f10610fa757610100808354040283529160200191610fd2565b820191906000526020600020905b815481529060010190602001808311610fb557829003601f168201915b50505050508152602001600282018054600181600116156101000203166002900480601f0160208091040260200160405190810160405280929190818152602001828054600181600116156101000203166002900480156110745780601f1061104957610100808354040283529160200191611074565b820191906000526020600020905b81548152906001019060200180831161105757829003601f168201915b50505050508152602001600382018054600181600116156101000203166002900480601f0160208091040260200160405190810160405280929190818152602001828054600181600116156101000203166002900480156111165780601f106110eb57610100808354040283529160200191611116565b820191906000526020600020905b8154815290600101906020018083116110f957829003601f168201915b505050505081526020016004820154815250509050816020015181608001818151039150818152505080600d60008460000151815260200190815260200160002060008201518160000155602082015181600101908051906020019061117d92919061395c565b50604082015181600201908051906020019061119a92919061395c565b5060608201518160030190805190602001906111b792919061395c565b50608082015181600401559050508160200151600e60003373ffffffffffffffffffffffffffffffffffffffff1673ffffffffffffffffffffffffffffffffffffffff16815260200190815260200160002060030160008282540392505081905550600160085414156116825761122c613913565b6040518060400160405280898152602001600e60003373ffffffffffffffffffffffffffffffffffffffff1673ffffffffffffffffffffffffffffffffffffffff168152602001908152602001600020600101548152509050600e60003373ffffffffffffffffffffffffffffffffffffffff1673ffffffffffffffffffffffffffffffffffffffff16815260200190815260200160002060010154600e60003373ffffffffffffffffffffffffffffffffffffffff1673ffffffffffffffffffffffffffffffffffffffff1681526020019081526020016000206003016000828254019250508190555080600e60003373ffffffffffffffffffffffffffffffffffffffff1673ffffffffffffffffffffffffffffffffffffffff1681526020019081526020016000206005016000600189038152602001908152602001600020600082015181600001556020820151816001015590505061138d61392d565b600d60008a81526020019081526020016000206040518060a001604052908160008201548152602001600182018054600181600116156101000203166002900480601f01602080910402602001604051908101604052809291908181526020018280546001816001161561010002031660029004801561144e5780601f106114235761010080835404028352916020019161144e565b820191906000526020600020905b81548152906001019060200180831161143157829003601f168201915b50505050508152602001600282018054600181600116156101000203166002900480601f0160208091040260200160405190810160405280929190818152602001828054600181600116156101000203166002900480156114f05780601f106114c5576101008083540402835291602001916114f0565b820191906000526020600020905b8154815290600101906020018083116114d357829003601f168201915b50505050508152602001600382018054600181600116156101000203166002900480601f0160208091040260200160405190810160405280929190818152602001828054600181600116156101000203166002900480156115925780601f1061156757610100808354040283529160200191611592565b820191906000526020600020905b81548152906001019060200180831161157557829003601f168201915b505050505081526020016004820154815250509050600e60003373ffffffffffffffffffffffffffffffffffffffff1673ffffffffffffffffffffffffffffffffffffffff1681526020019081526020016000206001015481608001818151019150818152505080600d60008b815260200190815260200160002060008201518160000155602082015181600101908051906020019061163392919061395c565b50604082015181600201908051906020019061165092919061395c565b50606082015181600301908051906020019061166d92919061395c565b50608082015181600401559050505050611a16565b61168a613913565b604051806040016040528089815260200188815250905086600e60003373ffffffffffffffffffffffffffffffffffffffff1673ffffffffffffffffffffffffffffffffffffffff1681526020019081526020016000206003016000828254019250508190555080600e60003373ffffffffffffffffffffffffffffffffffffffff1673ffffffffffffffffffffffffffffffffffffffff1681526020019081526020016000206005016000600189038152602001908152602001600020600082015181600001556020820151816001015590505061176761392d565b600d60008a81526020019081526020016000206040518060a001604052908160008201548152602001600182018054600181600116156101000203166002900480601f0160208091040260200160405190810160405280929190818152602001828054600181600116156101000203166002900480156118285780601f106117fd57610100808354040283529160200191611828565b820191906000526020600020905b81548152906001019060200180831161180b57829003601f168201915b50505050508152602001600282018054600181600116156101000203166002900480601f0160208091040260200160405190810160405280929190818152602001828054600181600116156101000203166002900480156118ca5780601f1061189f576101008083540402835291602001916118ca565b820191906000526020600020905b8154815290600101906020018083116118ad57829003601f168201915b50505050508152602001600382018054600181600116156101000203166002900480601f01602080910402602001604051908101604052809291908181526020018280546001816001161561010002031660029004801561196c5780601f106119415761010080835404028352916020019161196c565b820191906000526020600020905b81548152906001019060200180831161194f57829003601f168201915b5050505050815260200160048201548152505090508781608001818151019150818152505080600d60008b81526020019081526020016000206000820151816000015560208201518160010190805190602001906119cb92919061395c565b5060408201518160020190805190602001906119e892919061395c565b506060820151816003019080519060200190611a0592919061395c565b506080820151816004015590505050505b50505050505050565b600560009054906101000a900473ffffffffffffffffffffffffffffffffffffffff1673ffffffffffffffffffffffffffffffffffffffff163373ffffffffffffffffffffffffffffffffffffffff1614611ac5576040517f08c379a0000000000000000000000000000000000000000000000000000000008152600401808060200182810382526039815260200180613b2b6039913960400191505060405180910390fd5b60015481118015611ad7575060025481105b611b2c576040517f08c379a000000000000000000000000000000000000000000000000000000000815260040180806020018281038252604b815260200180613a2a604b913960600191505060405180910390fd5b6000845111611ba3576040517f08c379a000000000000000000000000000000000000000000000000000000000815260040180806020018281038252601a8152602001807f63616e646964617465206e616d6520697320726571756972656400000000000081525060200191505060405180910390fd5b6000825111611c1a576040517f08c379a000000000000000000000000000000000000000000000000000000000815260040180806020018281038252601a8152602001807f63616e64696461746520496e666f20697320726571756972656400000000000081525060200191505060405180910390fd5b6006600081548092919060010191905055506060604051806080016040528060508152602001613caa605091399050600084511115611c57578390505b6040518060a0016040528060065481526020018681526020018281526020018481526020016000815250600d60006006548152602001908152602001600020600082015181600001556020820151816001019080519060200190611cbc92919061395c565b506040820151816002019080519060200190611cd992919061395c565b506060820151816003019080519060200190611cf692919061395c565b50608082015181600401559050507f42b4a8b0927ca539f77ee4b24c6f58d4792eb42d84106e38610d2215acc6e725600654868386600060405180868152602001806020018060200180602001858152602001848103845288818151815260200191508051906020019080838360005b83811015611d81578082015181840152602081019050611d66565b50505050905090810190601f168015611dae5780820380516001836020036101000a031916815260200191505b50848103835287818151815260200191508051906020019080838360005b83811015611de7578082015181840152602081019050611dcc565b50505050905090810190601f168015611e145780820380516001836020036101000a031916815260200191505b50848103825286818151815260200191508051906020019080838360005b83811015611e4d578082015181840152602081019050611e32565b50505050905090810190601f168015611e7a5780820380516001836020036101000a031916815260200191505b509850505050505050505060405180910390a15050505050565b60075481565b600d602052806000526040600020600091509050806000015490806001018054600181600116156101000203166002900480601f016020809104026020016040519081016040528092919081815260200182805460018160011615610100020316600290048015611f4c5780601f10611f2157610100808354040283529160200191611f4c565b820191906000526020600020905b815481529060010190602001808311611f2f57829003601f168201915b505050505090806002018054600181600116156101000203166002900480601f016020809104026020016040519081016040528092919081815260200182805460018160011615610100020316600290048015611fea5780601f10611fbf57610100808354040283529160200191611fea565b820191906000526020600020905b815481529060010190602001808311611fcd57829003601f168201915b505050505090806003018054600181600116156101000203166002900480601f0160208091040260200160405190810160405280929190818152602001828054600181600116156101000203166002900480156120885780601f1061205d57610100808354040283529160200191612088565b820191906000526020600020905b81548152906001019060200180831161206b57829003601f168201915b5050505050908060040154905085565b60045481565b600354811180156120b0575060045481105b612105576040517f08c379a0000000000000000000000000000000000000000000000000000000008152600401808060200182810382526039815260200180613b956039913960400191505060405180910390fd5b60008311801561211757506006548311155b612189576040517f08c379a00000000000000000000000000000000000000000000000000000000081526004018080602001828103825260118152602001807f43616e64696461746520696e76616c696400000000000000000000000000000081525060200191505060405180910390fd5b60001515600e60003373ffffffffffffffffffffffffffffffffffffffff1673ffffffffffffffffffffffffffffffffffffffff16815260200190815260200160002060060160009054906101000a900460ff161515148061222d57506003600e60003373ffffffffffffffffffffffffffffffffffffffff1673ffffffffffffffffffffffffffffffffffffffff16815260200190815260200160002060000154105b612282576040517f08c379a0000000000000000000000000000000000000000000000000000000008152600401808060200182810382526038815260200180613c2a6038913960400191505060405180910390fd5b6000600e60003373ffffffffffffffffffffffffffffffffffffffff1673ffffffffffffffffffffffffffffffffffffffff168152602001908152602001600020600101541161231d576040517f08c379a0000000000000000000000000000000000000000000000000000000008152600401808060200182810382526028815260200180613a026028913960400191505060405180910390fd5b600754600e60003373ffffffffffffffffffffffffffffffffffffffff1673ffffffffffffffffffffffffffffffffffffffff1681526020019081526020016000206004015411156123ba576040517f08c379a0000000000000000000000000000000000000000000000000000000008152600401808060200182810382526035815260200180613af66035913960400191505060405180910390fd5b6123c26138db565b600e60003373ffffffffffffffffffffffffffffffffffffffff1673ffffffffffffffffffffffffffffffffffffffff1681526020019081526020016000206040518060c001604052908160008201548152602001600182015481526020016002820154815260200160038201548152602001600482015481526020016006820160009054906101000a900460ff16151515158152505090506001600854141561252d578060400151600e60003373ffffffffffffffffffffffffffffffffffffffff1673ffffffffffffffffffffffffffffffffffffffff168152602001908152602001600020600101548260600151011115612528576040517f08c379a000000000000000000000000000000000000000000000000000000000815260040180806020018281038252601c8152602001807f596f7520646f6e2774206861766520736f206d616e7920766f7465730000000081525060200191505060405180910390fd5b6125ae565b80604001518382606001510111156125ad576040517f08c379a000000000000000000000000000000000000000000000000000000000815260040180806020018281038252601c8152602001807f596f7520646f6e2774206861766520736f206d616e7920766f7465730000000081525060200191505060405180910390fd5b5b600080905060008090505b600e60003373ffffffffffffffffffffffffffffffffffffffff1673ffffffffffffffffffffffffffffffffffffffff168152602001908152602001600020600401548111612707577fd13029edcde76ad9022a55453085b104be53c8f29ce3199f94b19445f92db5ab600e60003373ffffffffffffffffffffffffffffffffffffffff1673ffffffffffffffffffffffffffffffffffffffff16815260200190815260200160002060050160008381526020019081526020016000206000015487604051808381526020018281526020019250505060405180910390a185600e60003373ffffffffffffffffffffffffffffffffffffffff1673ffffffffffffffffffffffffffffffffffffffff16815260200190815260200160002060050160008381526020019081526020016000206000015414156126fa57600191505b80806001019150506125b9565b50801561275f576040517f08c379a0000000000000000000000000000000000000000000000000000000008152600401808060200182810382526051815260200180613a756051913960600191505060405180910390fd5b600e60003373ffffffffffffffffffffffffffffffffffffffff1673ffffffffffffffffffffffffffffffffffffffff168152602001908152602001600020600401600081548092919060010191905055506001600e60003373ffffffffffffffffffffffffffffffffffffffff1673ffffffffffffffffffffffffffffffffffffffff16815260200190815260200160002060060160006101000a81548160ff02191690831515021790555060016008541415612d695761281f613913565b6040518060400160405280878152602001600e60003373ffffffffffffffffffffffffffffffffffffffff1673ffffffffffffffffffffffffffffffffffffffff16815260200190815260200160002060010154815250905080600e60003373ffffffffffffffffffffffffffffffffffffffff1673ffffffffffffffffffffffffffffffffffffffff16815260200190815260200160002060050160008560800151815260200190815260200160002060008201518160000155602082015181600101559050507f78ff6e2c7619930709f6e387c14aa9d872e9a589357f3473264b15cb225deae5600e60003373ffffffffffffffffffffffffffffffffffffffff1673ffffffffffffffffffffffffffffffffffffffff16815260200190815260200160002060050160008560800151815260200190815260200160002060000154600e60003373ffffffffffffffffffffffffffffffffffffffff1673ffffffffffffffffffffffffffffffffffffffff16815260200190815260200160002060050160008660800151815260200190815260200160002060010154604051808381526020018281526020019250505060405180910390a1600e60003373ffffffffffffffffffffffffffffffffffffffff1673ffffffffffffffffffffffffffffffffffffffff16815260200190815260200160002060010154600e60003373ffffffffffffffffffffffffffffffffffffffff1673ffffffffffffffffffffffffffffffffffffffff16815260200190815260200160002060030160008282540192505081905550612a7461392d565b600d60008881526020019081526020016000206040518060a001604052908160008201548152602001600182018054600181600116156101000203166002900480601f016020809104026020016040519081016040528092919081815260200182805460018160011615610100020316600290048015612b355780601f10612b0a57610100808354040283529160200191612b35565b820191906000526020600020905b815481529060010190602001808311612b1857829003601f168201915b50505050508152602001600282018054600181600116156101000203166002900480601f016020809104026020016040519081016040528092919081815260200182805460018160011615610100020316600290048015612bd75780601f10612bac57610100808354040283529160200191612bd7565b820191906000526020600020905b815481529060010190602001808311612bba57829003601f168201915b50505050508152602001600382018054600181600116156101000203166002900480601f016020809104026020016040519081016040528092919081815260200182805460018160011615610100020316600290048015612c795780601f10612c4e57610100808354040283529160200191612c79565b820191906000526020600020905b815481529060010190602001808311612c5c57829003601f168201915b505050505081526020016004820154815250509050600e60003373ffffffffffffffffffffffffffffffffffffffff1673ffffffffffffffffffffffffffffffffffffffff1681526020019081526020016000206001015481608001818151019150818152505080600d6000898152602001908152602001600020600082015181600001556020820151816001019080519060200190612d1a92919061395c565b506040820151816002019080519060200190612d3792919061395c565b506060820151816003019080519060200190612d5492919061395c565b506080820151816004015590505050506130fe565b612d71613913565b604051806040016040528087815260200186815250905084600e60003373ffffffffffffffffffffffffffffffffffffffff1673ffffffffffffffffffffffffffffffffffffffff1681526020019081526020016000206003016000828254019250508190555080600e60003373ffffffffffffffffffffffffffffffffffffffff1673ffffffffffffffffffffffffffffffffffffffff1681526020019081526020016000206005016000856080015181526020019081526020016000206000820151816000015560208201518160010155905050612e4f61392d565b600d60008881526020019081526020016000206040518060a001604052908160008201548152602001600182018054600181600116156101000203166002900480601f016020809104026020016040519081016040528092919081815260200182805460018160011615610100020316600290048015612f105780601f10612ee557610100808354040283529160200191612f10565b820191906000526020600020905b815481529060010190602001808311612ef357829003601f168201915b50505050508152602001600282018054600181600116156101000203166002900480601f016020809104026020016040519081016040528092919081815260200182805460018160011615610100020316600290048015612fb25780601f10612f8757610100808354040283529160200191612fb2565b820191906000526020600020905b815481529060010190602001808311612f9557829003601f168201915b50505050508152602001600382018054600181600116156101000203166002900480601f0160208091040260200160405190810160405280929190818152602001828054600181600116156101000203166002900480156130545780601f1061302957610100808354040283529160200191613054565b820191906000526020600020905b81548152906001019060200180831161303757829003601f168201915b5050505050815260200160048201548152505090508581608001818151019150818152505080600d60008981526020019081526020016000206000820151816000015560208201518160010190805190602001906130b392919061395c565b5060408201518160020190805190602001906130d092919061395c565b5060608201518160030190805190602001906130ed92919061395c565b506080820151816004015590505050505b7f6a18ff7aa71af578889dfa3183b3b9531f148d3a1ae37bda99a2bebe8f3b86628583600001518460a001516040518084815260200183815260200182151515158152602001935050505060405180910390a15050505050565b60015481565b60035481565b60065481565b60085481565b600b5481565b60008054600181600116156101000203166002900480601f01602080910402602001604051908101604052809291908181526020018280546001816001161561010002031660029004801561320c5780601f106131e15761010080835404028352916020019161320c565b820191906000526020600020905b8154815290600101906020018083116131ef57829003601f168201915b505050505081565b600a5481565b600e6020528060005260406000206000915090508060000154908060010154908060020154908060030154908060040154908060060160009054906101000a900460ff16905086565b60025481565b600560009054906101000a900473ffffffffffffffffffffffffffffffffffffffff1673ffffffffffffffffffffffffffffffffffffffff163373ffffffffffffffffffffffffffffffffffffffff161461330f576040517f08c379a0000000000000000000000000000000000000000000000000000000008152600401808060200182810382526031815260200180613b646031913960400191505060405180910390fd5b600a5481111561336a576040517f08c379a0000000000000000000000000000000000000000000000000000000008152600401808060200182810382526030815260200180613ac66030913960400191505060405180910390fd5b60095481600b540111156133c9576040517f08c379a0000000000000000000000000000000000000000000000000000000008152600401808060200182810382526048815260200180613c626048913960600191505060405180910390fd5b80600b5401600b819055506133dc6138db565b600e60008473ffffffffffffffffffffffffffffffffffffffff1673ffffffffffffffffffffffffffffffffffffffff1681526020019081526020016000206040518060c001604052908160008201548152602001600182015481526020016002820154815260200160038201548152602001600482015481526020016006820160009054906101000a900460ff161515151581525050905081816020018181525050600754820281604001818152505080600e60008573ffffffffffffffffffffffffffffffffffffffff1673ffffffffffffffffffffffffffffffffffffffff168152602001908152602001600020600082015181600001556020820151816001015560408201518160020155606082015181600301556080820151816004015560a08201518160060160006101000a81548160ff0219169083151502179055509050507f7fac0def1c702e7a90a7a9ed5b1c9b636a94af71ff279793847fad47a97f4b6e8383604051808373ffffffffffffffffffffffffffffffffffffffff1673ffffffffffffffffffffffffffffffffffffffff1681526020018281526020019250505060405180910390a1505050565b600560009054906101000a900473ffffffffffffffffffffffffffffffffffffffff1681565b60095481565b6000600e60003373ffffffffffffffffffffffffffffffffffffffff1673ffffffffffffffffffffffffffffffffffffffff1681526020019081526020016000206004015490506060816040519080825280602002602001820160405280156136365781602001602082028038833980820191505090505b50905060608260405190808252806020026020018201604052801561366a5781602001602082028038833980820191505090505b50905060608360405190808252806020026020018201604052801561369e5781602001602082028038833980820191505090505b50905060008090505b848110156137b357808482815181106136bc57fe5b602002602001018181525050600e60003373ffffffffffffffffffffffffffffffffffffffff1673ffffffffffffffffffffffffffffffffffffffff16815260200190815260200160002060050160008281526020019081526020016000206000015483828151811061372b57fe5b602002602001018181525050600e60003373ffffffffffffffffffffffffffffffffffffffff1673ffffffffffffffffffffffffffffffffffffffff16815260200190815260200160002060050160008281526020019081526020016000206001015482828151811061379a57fe5b60200260200101818152505080806001019150506136a7565b503373ffffffffffffffffffffffffffffffffffffffff167ffe9c26de49c8e5ad01e0da0affef085e88dac0bc75b371bf161f34199f7df65884848460405180806020018060200180602001848103845287818151815260200191508051906020019060200280838360005b8381101561383a57808201518184015260208101905061381f565b50505050905001848103835286818151815260200191508051906020019060200280838360005b8381101561387c578082015181840152602081019050613861565b50505050905001848103825285818151815260200191508051906020019060200280838360005b838110156138be5780820151818401526020810190506138a3565b50505050905001965050505050505060405180910390a250505050565b6040518060c0016040528060008152602001600081526020016000815260200160008152602001600081526020016000151581525090565b604051806040016040528060008152602001600081525090565b6040518060a0016040528060008152602001606081526020016060815260200160608152602001600081525090565b828054600181600116156101000203166002900490600052602060002090601f016020900481019282601f1061399d57805160ff19168380011785556139cb565b828001600101855582156139cb579182015b828111156139ca5782518255916020019190600101906139af565b5b5090506139d891906139dc565b5090565b6139fe91905b808211156139fa5760008160009055506001016139e2565b5090565b9056fe596f7520646f6e2774206861766520616e792073746f636b2e20596f752063616e277420766f746554686520737461676520666f7220616464696e67206e65772063616e64696464617465206973206e6f742076616c69642c206e6f2063616e6469646174652063616e206265206164646564596f75206861766520766f74656420666f7220746869732063616e6469646174652e20496620796f752077616e7420746f206368616e67652c207468656e20757365206368616e67654d79566f74652829596f752063616e2774206465706c6f792074686973206d616e792073746f636b20666f72207468697320766f7465722e596f752063616e277420766f746520666f7220616e79206d6f7265206e6f6d696e61746f722e20596f752063616e277420766f7465596f752063616e277420637265617465206e65772063616469646174652e204f6e6c79206465706c6f7965722063616e20646f20746869732e596f752063616e2774206465706c6f792073746f636b2e4f6e6c79206465706c6f7965722063616e20646f20746869732e54686520737461676520666f7220766f74696e67206973206e6f742076616c69642c206e6f20766f74652063616e2062652063726561746564596f75206861766520766f74656420666f7220746869732063616e6469646174652e766f74696e6720696e666f2049442069732077726f6e672c20796f7520686176656e277420766f74656420666f72207468697320706572736f6e596f7520686176652061636365737320796f7572206d617820766f74696e67206d6f64696679696e672074696d657328332074696d657329596f752063616e2774206465706c6f79206d6f72652073746f636b2c2063757272656e742073746f636b206172652067726561746572207468616e20746f74616c2073746f636b2e68747470733a2f2f656e2e77696b6970656469612e6f72672f77696b692f416e6f6e796d6f75735f2867726f757029232f6d656469612f46696c653a416e6f6e796d6f75735f656d626c656d2e737667a265627a7a723158204e12d1b0b0f6fd0a6c7616b14d7120422a41ebec7c7fc2903d9457df45db49b464736f6c63430005100032",
  "source": "pragma solidity >=0.4.21 <0.7.0;\n\n//pragma solidity ^0.5.0;\n\n\ncontract Vote {\n    string public voteName;\n    \n    uint256 public addCandidateStartDate;\n    uint256 public addCandidateEndDate;\n    uint256 public voteStartDate;\n    uint256 public voteEndDate;\n    \n    // deployer decide who can vote\n    // deployer decide the stock of each Voter\n    address public voteDeployer;\n    \n    // how many people are in the cadidate map\n    uint public totalCandidateNumber = 0;\n    \n    // how many people can be nominated\n    uint public maxNominatedNum;\n    \n    // vote type should be straight voting or cumulative voting\n    // 1-> straight voting\n    // 2-> cumulative voting\n    uint public voteType=1;\n    \n    // should decide the total stock\n    // should decide the threshold of the max stock of a Voter\n    // the stock cannot be changed after the deployer confirms\n    uint public totalShareNum;\n    uint public maxShareNum;\n    uint public currentTotalShareNum = 0;\n    \n    // deployer should confirm when finish deploying the stock\n    bool comfirm = false;\n    \n    mapping(uint => Candidate) public candidates;\n    mapping(address => Voter) public voters;\n\n    struct Candidate {\n        uint candidateId;\n        string candidateName;\n        string candidatePhoto;\n        string candidateInfo;\n        uint candidateTotalVote;\n    }\n    \n    struct OneVote {\n        uint candidateId;\n        uint voteNum;\n    }\n\n    struct Voter{\n        uint voteTime; // how many times I have changed my voted\n        uint stock;\n        uint totalVoteNum; // how many votes do I have\n        uint voteUsed; // how many votes do I use\n        uint numOfPeopleNominated; //  how many people do I nominate\n        mapping (uint => OneVote) myVote; // record for all the nominator I voted\n        bool hasVoted;\n    }\n    \n    event allocateStock(\n        address voter,\n        uint stock\n    );\n    \n    event newVoteRecord(\n        uint candidateId,\n        uint voteNum\n    );\n    \n    event lookForInfo(\n        uint candidateId,\n        uint inputId\n    );\n\n    event addCandidate(\n        uint candidateId,\n        string candidateName,\n        string candidatePhoto,\n        string candidateInfo,\n        uint candidateTotalVote\n    );\n    \n    \n    event vote(\n        uint voteName,\n        uint voteTime,\n        bool hasVoted\n    );\n    \n    event lookUpMyVote(\n        address indexed myAddr,\n        uint[] recordID,\n        uint[] candidateID,\n        uint[] voteNum\n        );\n\n\n// voting process\n// 1. define the candidate, candidate modifying period, voting period, max Nominating Num, total stock, max stock, and voting type\n// 2. deployer allocate the share of each voters, voter without any share cannot vote\n// 3. if it's straight voting, then every valid voter can have one vote per share for each nominator\n//    e.g. The voting have 10 candidate, the voting need to select 3 of them to be in board of directors.\n//          Voter Ben has 20 stock thus, he can nominate 3 people, and all these three will have 20 votes\n// 4. if it's cumulative voting, then every voter can have voteNum = stock*maxNominatedNum, and voter can freely distrubute his votes\n\n    constructor(uint256 _addStartDate, uint256 _addEndDate, uint256 _startDate, uint256 _endDate, uint256 _maxNominatedNum,uint256 _totalShareNum, uint256 _maxShareNum, uint _voteType) public {\n        voteName = \"block chain vote app\";\n        addCandidateStartDate = _addStartDate;\n        addCandidateEndDate = _addEndDate;\n        voteStartDate = _startDate;\n        voteEndDate = _endDate;\n        voteType = _voteType;\n        maxNominatedNum= _maxNominatedNum;\n        voteDeployer = msg.sender;\n        totalShareNum = _totalShareNum;\n        maxShareNum = _maxShareNum;\n    }\n    \n    \n    \n    \n   // this func create a new candidate, only deployer can call this func\n   // name and info of candidate must be not null\n   // default candidate photo url is: https://en.wikipedia.org/wiki/Anonymous_(group)#/media/File:Anonymous_emblem.svg\n   // future direction: the current time is the value returned by JS func:\n   // 1.let date = (new Date()).getTime();\n   // 2.let currentDate = date / 1000; \n   // current time should be within the creating new cadidate period\n\n    function createNewCandidate(string memory _cadidateName, string memory _candidatePhoto, string memory _cadidateInfo, uint256 _currentDate) public{\n        require(msg.sender == voteDeployer, \"You can't create new cadidate. Only deployer can do this.\");\n        require(_currentDate > addCandidateStartDate && _currentDate < addCandidateEndDate, \"The stage for adding new candiddate is not valid, no candidate can be added\");\n        require(bytes(_cadidateName).length > 0, \"candidate name is required\");\n        require(bytes(_cadidateInfo).length > 0, \"candidate Info is required\");\n        totalCandidateNumber++;\n        string memory photo = \"https://en.wikipedia.org/wiki/Anonymous_(group)#/media/File:Anonymous_emblem.svg\";\n        if(bytes(_candidatePhoto).length > 0){photo = _candidatePhoto;}\n        candidates[totalCandidateNumber] = Candidate(totalCandidateNumber,_cadidateName,photo,_cadidateInfo,0);\n        emit addCandidate(totalCandidateNumber,_cadidateName,photo,_cadidateInfo,0);\n    }\n    \n    \n    // this func allocate the share to one shareholder, only deployer can call this func\n    // the share of one voter should not greater than max share amount that a voter can hold\n    // the currentTotalShareNum+_stockNum should not greater than total share available\n\n    function allocateShare(address _voterAddr, uint _stockNum) public{\n        require(msg.sender == voteDeployer, \"You can't deploy stock.Only deployer can do this.\");\n        require(_stockNum <= maxShareNum, \"You can't deploy this many stock for this voter.\");\n        require((currentTotalShareNum+_stockNum) <= totalShareNum, \"You can't deploy more stock, current stock are greater than total stock.\");\n        \n        // add to currentTotalShareNum\n        currentTotalShareNum = currentTotalShareNum+_stockNum;\n        \n        Voter memory _voter =  voters[_voterAddr];\n        \n        _voter.stock = _stockNum;\n        \n        _voter.totalVoteNum = _stockNum*maxNominatedNum;\n        // if(voteType==1){\n        //     _voter.totalVoteNum = _stockNum;\n        // }else{\n        //     _voter.totalVoteNum = _stockNum*maxNominatedNum;\n        // }\n        \n        voters[_voterAddr] = _voter;\n        \n        emit allocateStock(_voterAddr,_stockNum);\n    }\n\n    // this func let voter vote for a candidate\n    //_candidateId: the candidate you want to vote\n    //_voteNum: the number of votes\n    // _currentDate: future direction, the current time is the value returned by JS func:\n    // 1.let date = (new Date()).getTime();\n    // 2.let currentDate = date / 1000; \n    //basic logic\n    // current time should be within the voting period\n    // if voter has not voted before, then he can vote\n    // if numOfPeopleNominated < maxNominatedNum then he can voteForCandidate\n    // if voter has stock then he can voteForCandidate\n    // if voter still has votes left he can vote\n\n    function voteForCandidate(uint _candidateId, uint _voteNum, uint256 _currentDate) public{\n        require(_currentDate > voteStartDate && _currentDate < voteEndDate, \"The stage for voting is not valid, no vote can be created\");       \n        require(_candidateId > 0 && _candidateId <= totalCandidateNumber, 'Candidate invalid');\n        require(voters[msg.sender].hasVoted == false || voters[msg.sender].voteTime < 3, 'You have access your max voting modifying times(3 times)');\n        require(voters[msg.sender].stock > 0 , \"You don't have any stock. You can't vote\");\n        require(voters[msg.sender].numOfPeopleNominated <= maxNominatedNum , \"You can't vote for any more nominator. You can't vote\");\n        \n        \n        // get the last voting info\n        Voter memory _voter =  voters[msg.sender];\n        // still has votes left?\n        if(voteType==1){\n            require(_voter.voteUsed+voters[msg.sender].stock <= _voter.totalVoteNum, \"You don't have so many votes\");\n        }else{\n            require(_voter.voteUsed+_voteNum <= _voter.totalVoteNum, \"You don't have so many votes\");\n        }\n\n        bool votedForCandidate = false;\n        for(uint i=0;i<=voters[msg.sender].numOfPeopleNominated;i++){\n            emit lookForInfo(voters[msg.sender].myVote[i].candidateId,_candidateId);\n            if(voters[msg.sender].myVote[i].candidateId == _candidateId){\n                votedForCandidate = true;\n             }\n        }\n        require(!votedForCandidate,\"You have voted for this candidate. If you want to change, then use changeMyVote()\");\n           \n\n       \n    // then lets input the new voting info\n        voters[msg.sender].numOfPeopleNominated++;\n        voters[msg.sender].hasVoted = true;\n        \n        if(voteType==1){\n            // straight \n            //vote num = stock num\n            OneVote memory myNewVote = OneVote(_candidateId,voters[msg.sender].stock);\n\n            voters[msg.sender].myVote[_voter.numOfPeopleNominated] = myNewVote;\n            emit newVoteRecord(voters[msg.sender].myVote[_voter.numOfPeopleNominated].candidateId,voters[msg.sender].myVote[_voter.numOfPeopleNominated].voteNum);\n            \n            voters[msg.sender].voteUsed += voters[msg.sender].stock;\n            \n            //voters[msg.sender] = Voter(_voter.voteTime,_voter.stock,_voter.totalVoteNum,_voter.voteUsed,_voter.numOfPeopleNominated,myNewVote,true);\n            \n            Candidate memory _cadidate = candidates[_candidateId];\n            _cadidate.candidateTotalVote += voters[msg.sender].stock;\n            candidates[_candidateId] = _cadidate;\n        }else{\n            // cumulative \n            // vote num = _newVote\n            OneVote memory myNewVote = OneVote(_candidateId,_voteNum);\n             voters[msg.sender].voteUsed += _voteNum;\n              voters[msg.sender].myVote[_voter.numOfPeopleNominated] = myNewVote;\n           // voters[msg.sender] = _voter;\n            \n            Candidate memory _cadidate = candidates[_candidateId];\n            _cadidate.candidateTotalVote += _voteNum;\n            candidates[_candidateId] = _cadidate;\n            \n        }\n\n        emit vote(_candidateId,_voter.voteTime,_voter.hasVoted);\n    }\n    \n    // this func can let you look up all the vote records\n    function lookUpVoteRecord() public{\n        uint num_p = voters[msg.sender].numOfPeopleNominated;\n        uint256[] memory recordID = new uint256[](num_p);\n        uint256[] memory candidateID = new uint256[](num_p);\n        uint256[] memory voteNum = new uint256[](num_p);\n        for(uint _recordId = 0;_recordId < num_p;_recordId++){\n            recordID[_recordId] = _recordId;\n            candidateID[_recordId] = voters[msg.sender].myVote[_recordId].candidateId;\n            voteNum[_recordId] = voters[msg.sender].myVote[_recordId].voteNum;\n        }\n        emit lookUpMyVote(msg.sender,recordID,candidateID,voteNum);\n     }\n    \n    \n    \n    // this func change the EXISTING record in myVote struct.\n    //_candidateId: the new candidate you want to vote\n    //_newVote: num of votes\n    //_voteInfoNum: the voting record you want to edit\n    // _currentDate: future direction. For now it will be a constant input\n    //basic logic\n    // it will first retrieve the vote you want to modify\n    // then it will deduct the votes from the previous candidate you vote\n    // after that it will add the vote to the new candidate you want to vote\n    // this func won't change the numOfPeopleNominated\n    function changeMyVote(uint _candidateId, uint _newVote, uint _voteInfoNum, uint256 _currentDate) public{\n        require(_currentDate > voteStartDate && _currentDate < voteEndDate, \"The stage for voting is not valid, no vote can be created\");       \n        require(_candidateId > 0 && _candidateId <= totalCandidateNumber, 'Candidate invalid');\n        require(voters[msg.sender].hasVoted == true && voters[msg.sender].voteTime < 3, 'You have access your max voting modifying times(3 times)');\n        require(voters[msg.sender].myVote[_voteInfoNum-1].voteNum > 0, \"voting info ID is wrong, you haven't voted for this person\");\n        \n        // get the last voting info\n        Voter memory _voter = voters[msg.sender];\n\n        OneVote memory _voteToModify =  voters[msg.sender].myVote[_voteInfoNum-1];\n        emit lookForInfo(_voteToModify.candidateId,_voteToModify.voteNum);\n\n        // total voteUsed checking\n        if(voteType==2){\n            uint myLastVoteNum = _voteToModify.voteNum;\n            require(_voter.voteUsed-myLastVoteNum+_newVote<= _voter.totalVoteNum, \"You don't have so many votes\");\n        }else{\n            // if you have vote for this candidate then don't vote, cuz in type 1 every candidate can only be voted once\n            bool votedForCandidate = false;\n           for(uint i=0;i<=voters[msg.sender].numOfPeopleNominated;i++){\n            emit lookForInfo(voters[msg.sender].myVote[i].candidateId,_candidateId);\n            if(voters[msg.sender].myVote[i].candidateId == _candidateId && voters[msg.sender].myVote[i].voteNum > 0){\n                votedForCandidate = true;\n             }\n              require(!votedForCandidate,\"You have voted for this candidate.\");\n       \n        }\n        }\n       \n        // now start to modify\n        voters[msg.sender].voteTime++;\n        \n        // last candidate I vote\n        Candidate memory _lastVoteCadidate = candidates[_voteToModify.candidateId];\n         \n         // retrieve the voteNumUsed and the candidate voteNum\n         _lastVoteCadidate.candidateTotalVote  -= _voteToModify.voteNum;\n         candidates[_voteToModify.candidateId] = _lastVoteCadidate;\n         \n         voters[msg.sender].voteUsed -= _voteToModify.voteNum;\n         \n         \n         // now input the new vote info\n         \n        if(voteType==1){\n            // straight \n            //vote num = stock num\n            OneVote memory myNewVote = OneVote(_candidateId,voters[msg.sender].stock);\n            voters[msg.sender].voteUsed += voters[msg.sender].stock;\n            voters[msg.sender].myVote[_voteInfoNum-1] = myNewVote;\n\n            \n            Candidate memory _cadidate = candidates[_candidateId];\n            _cadidate.candidateTotalVote += voters[msg.sender].stock;\n            candidates[_candidateId] = _cadidate;\n        }else{\n            // cumulative \n            // vote num = _newVote\n            OneVote memory myNewVote = OneVote(_candidateId,_newVote);\n            voters[msg.sender].voteUsed += _newVote;\n             voters[msg.sender].myVote[_voteInfoNum-1] = myNewVote;\n\n            \n            Candidate memory _cadidate = candidates[_candidateId];\n            _cadidate.candidateTotalVote += _newVote;\n            candidates[_candidateId] = _cadidate;\n            \n        }\n        \n        \n    }\n\n\n\n}",
  "sourcePath": "/Users/apple/Desktop/EECE571G/finalProject/EECE571G_BLOCKCHAIN/contracts/Vote.sol",
  "compiler": {
    "name": "solc",
    "version": "0.5.16+commit.9c3226ce.Emscripten.clang"
  },
  "schemaVersion": "3.0.23",
  "updatedAt": "2020-03-25T03:45:56.117Z",
  "networkType": "ethereum",
  "devdoc": {
    "methods": {}
  },
  "userdoc": {
    "methods": {}
  }
}