{
  "contractName": "Vote",
  "abi": [
    {
      "inputs": [
        {
          "internalType": "uint256",
          "name": "_addStartDate",
          "type": "uint256"
        },
        {
          "internalType": "uint256",
          "name": "_addEndDate",
          "type": "uint256"
        },
        {
          "internalType": "uint256",
          "name": "_startDate",
          "type": "uint256"
        },
        {
          "internalType": "uint256",
          "name": "_endDate",
          "type": "uint256"
        },
        {
          "internalType": "uint256",
          "name": "_maxNominatedNum",
          "type": "uint256"
        },
        {
          "internalType": "uint256",
          "name": "_totalShareHold",
          "type": "uint256"
        },
        {
          "internalType": "uint256",
          "name": "_maxSharehold",
          "type": "uint256"
        },
        {
          "internalType": "uint256",
          "name": "_voteType",
          "type": "uint256"
        }
      ],
      "payable": false,
      "stateMutability": "nonpayable",
      "type": "constructor"
    },
    {
      "anonymous": false,
      "inputs": [
        {
          "indexed": false,
          "internalType": "uint256",
          "name": "candidateId",
          "type": "uint256"
        },
        {
          "indexed": false,
          "internalType": "string",
          "name": "candidateName",
          "type": "string"
        },
        {
          "indexed": false,
          "internalType": "string",
          "name": "candidatePhoto",
          "type": "string"
        },
        {
          "indexed": false,
          "internalType": "string",
          "name": "candidateInfo",
          "type": "string"
        },
        {
          "indexed": false,
          "internalType": "uint256",
          "name": "candidateTotalVote",
          "type": "uint256"
        }
      ],
      "name": "addCandidate",
      "type": "event"
    },
    {
      "anonymous": false,
      "inputs": [
        {
          "indexed": false,
          "internalType": "address",
          "name": "voter",
          "type": "address"
        },
        {
          "indexed": false,
          "internalType": "uint256",
          "name": "sharehold",
          "type": "uint256"
        }
      ],
      "name": "deploySharehold",
      "type": "event"
    },
    {
      "anonymous": false,
      "inputs": [
        {
          "indexed": false,
          "internalType": "uint256",
          "name": "candidateId",
          "type": "uint256"
        },
        {
          "indexed": false,
          "internalType": "uint256",
          "name": "inputId",
          "type": "uint256"
        }
      ],
      "name": "lookForInfo",
      "type": "event"
    },
    {
      "anonymous": false,
      "inputs": [
        {
          "indexed": false,
          "internalType": "address",
          "name": "myAddr",
          "type": "address"
        },
        {
          "indexed": false,
          "internalType": "uint256",
          "name": "recordID",
          "type": "uint256"
        },
        {
          "indexed": false,
          "internalType": "uint256",
          "name": "candidateID",
          "type": "uint256"
        },
        {
          "indexed": false,
          "internalType": "uint256",
          "name": "voteNum",
          "type": "uint256"
        }
      ],
      "name": "lookUpMyVote",
      "type": "event"
    },
    {
      "anonymous": false,
      "inputs": [
        {
          "indexed": false,
          "internalType": "uint256",
          "name": "candidateId",
          "type": "uint256"
        },
        {
          "indexed": false,
          "internalType": "uint256",
          "name": "voteNum",
          "type": "uint256"
        }
      ],
      "name": "newVoteRecord",
      "type": "event"
    },
    {
      "anonymous": false,
      "inputs": [
        {
          "indexed": false,
          "internalType": "uint256",
          "name": "voteName",
          "type": "uint256"
        },
        {
          "indexed": false,
          "internalType": "uint256",
          "name": "voteTime",
          "type": "uint256"
        },
        {
          "indexed": false,
          "internalType": "bool",
          "name": "hasVoted",
          "type": "bool"
        }
      ],
      "name": "vote",
      "type": "event"
    },
    {
      "constant": true,
      "inputs": [],
      "name": "addCandidateEndDate",
      "outputs": [
        {
          "internalType": "uint256",
          "name": "",
          "type": "uint256"
        }
      ],
      "payable": false,
      "stateMutability": "view",
      "type": "function"
    },
    {
      "constant": true,
      "inputs": [],
      "name": "addCandidateStartDate",
      "outputs": [
        {
          "internalType": "uint256",
          "name": "",
          "type": "uint256"
        }
      ],
      "payable": false,
      "stateMutability": "view",
      "type": "function"
    },
    {
      "constant": true,
      "inputs": [
        {
          "internalType": "uint256",
          "name": "",
          "type": "uint256"
        }
      ],
      "name": "candidates",
      "outputs": [
        {
          "internalType": "uint256",
          "name": "candidateId",
          "type": "uint256"
        },
        {
          "internalType": "string",
          "name": "candidateName",
          "type": "string"
        },
        {
          "internalType": "string",
          "name": "candidatePhoto",
          "type": "string"
        },
        {
          "internalType": "string",
          "name": "candidateInfo",
          "type": "string"
        },
        {
          "internalType": "uint256",
          "name": "candidateTotalVote",
          "type": "uint256"
        }
      ],
      "payable": false,
      "stateMutability": "view",
      "type": "function"
    },
    {
      "constant": true,
      "inputs": [],
      "name": "currentTotalShareHold",
      "outputs": [
        {
          "internalType": "uint256",
          "name": "",
          "type": "uint256"
        }
      ],
      "payable": false,
      "stateMutability": "view",
      "type": "function"
    },
    {
      "constant": true,
      "inputs": [],
      "name": "totalCandidateNumber",
      "outputs": [
        {
          "internalType": "uint256",
          "name": "",
          "type": "uint256"
        }
      ],
      "payable": false,
      "stateMutability": "view",
      "type": "function"
    },
    {
      "constant": true,
      "inputs": [],
      "name": "voteDeployer",
      "outputs": [
        {
          "internalType": "address",
          "name": "",
          "type": "address"
        }
      ],
      "payable": false,
      "stateMutability": "view",
      "type": "function"
    },
    {
      "constant": true,
      "inputs": [],
      "name": "voteEndDate",
      "outputs": [
        {
          "internalType": "uint256",
          "name": "",
          "type": "uint256"
        }
      ],
      "payable": false,
      "stateMutability": "view",
      "type": "function"
    },
    {
      "constant": true,
      "inputs": [],
      "name": "voteName",
      "outputs": [
        {
          "internalType": "string",
          "name": "",
          "type": "string"
        }
      ],
      "payable": false,
      "stateMutability": "view",
      "type": "function"
    },
    {
      "constant": true,
      "inputs": [],
      "name": "voteStartDate",
      "outputs": [
        {
          "internalType": "uint256",
          "name": "",
          "type": "uint256"
        }
      ],
      "payable": false,
      "stateMutability": "view",
      "type": "function"
    },
    {
      "constant": true,
      "inputs": [
        {
          "internalType": "address",
          "name": "",
          "type": "address"
        }
      ],
      "name": "voters",
      "outputs": [
        {
          "internalType": "uint256",
          "name": "voteTime",
          "type": "uint256"
        },
        {
          "internalType": "uint256",
          "name": "sharehold",
          "type": "uint256"
        },
        {
          "internalType": "uint256",
          "name": "totalVoteNum",
          "type": "uint256"
        },
        {
          "internalType": "uint256",
          "name": "voteUsed",
          "type": "uint256"
        },
        {
          "internalType": "uint256",
          "name": "numOfPeopleNominated",
          "type": "uint256"
        },
        {
          "internalType": "bool",
          "name": "hasVoted",
          "type": "bool"
        }
      ],
      "payable": false,
      "stateMutability": "view",
      "type": "function"
    },
    {
      "constant": false,
      "inputs": [
        {
          "internalType": "string",
          "name": "_cadidateName",
          "type": "string"
        },
        {
          "internalType": "string",
          "name": "_candidatePhoto",
          "type": "string"
        },
        {
          "internalType": "string",
          "name": "_cadidateInfo",
          "type": "string"
        },
        {
          "internalType": "uint256",
          "name": "_currentDate",
          "type": "uint256"
        }
      ],
      "name": "createNewCandidate",
      "outputs": [],
      "payable": false,
      "stateMutability": "nonpayable",
      "type": "function"
    },
    {
      "constant": false,
      "inputs": [
        {
          "internalType": "address",
          "name": "_voterAddr",
          "type": "address"
        },
        {
          "internalType": "uint256",
          "name": "_shareHold",
          "type": "uint256"
        }
      ],
      "name": "deployShareHold",
      "outputs": [],
      "payable": false,
      "stateMutability": "nonpayable",
      "type": "function"
    },
    {
      "constant": false,
      "inputs": [
        {
          "internalType": "uint256",
          "name": "_candidateId",
          "type": "uint256"
        },
        {
          "internalType": "uint256",
          "name": "_voteNum",
          "type": "uint256"
        },
        {
          "internalType": "uint256",
          "name": "_currentDate",
          "type": "uint256"
        }
      ],
      "name": "voteForCandidate",
      "outputs": [],
      "payable": false,
      "stateMutability": "nonpayable",
      "type": "function"
    },
    {
      "constant": false,
      "inputs": [
        {
          "internalType": "uint256",
          "name": "_recordId",
          "type": "uint256"
        }
      ],
      "name": "lookUpVoteRecord",
      "outputs": [],
      "payable": false,
      "stateMutability": "nonpayable",
      "type": "function"
    },
    {
      "constant": false,
      "inputs": [
        {
          "internalType": "uint256",
          "name": "_candidateId",
          "type": "uint256"
        },
        {
          "internalType": "uint256",
          "name": "_newVote",
          "type": "uint256"
        },
        {
          "internalType": "uint256",
          "name": "_voteInfoNum",
          "type": "uint256"
        },
        {
          "internalType": "uint256",
          "name": "_currentDate",
          "type": "uint256"
        }
      ],
      "name": "changeMyVote",
      "outputs": [],
      "payable": false,
      "stateMutability": "nonpayable",
      "type": "function"
    }
  ],
  "bytecode": "0x6080604052600060065560016008556000600b556000600c60006101000a81548160ff0219169083151502179055503480156200003b57600080fd5b5060405162003d1238038062003d1283398181016040526101008110156200006257600080fd5b8101908080519060200190929190805190602001909291908051906020019092919080519060200190929190805190602001909291908051906020019092919080519060200190929190805190602001909291905050506040518060400160405280601481526020017f626c6f636b20636861696e20766f74652061707000000000000000000000000081525060009080519060200190620001069291906200018e565b5087600181905550866002819055508560038190555084600481905550806008819055508360078190555033600560006101000a81548173ffffffffffffffffffffffffffffffffffffffff021916908373ffffffffffffffffffffffffffffffffffffffff1602179055508260098190555081600a8190555050505050505050506200023d565b828054600181600116156101000203166002900490600052602060002090601f016020900481019282601f10620001d157805160ff191683800117855562000202565b8280016001018555821562000202579182015b8281111562000201578251825591602001919060010190620001e4565b5b50905062000211919062000215565b5090565b6200023a91905b80821115620002365760008160009055506001016200021c565b5090565b90565b613ac5806200024d6000396000f3fe608060405234801561001057600080fd5b50600436106100f55760003560e01c8063708b5eca11610097578063a91b6f3311610066578063a91b6f33146106a0578063cd7ce358146106ce578063d2ff495f146106ec578063daeeb12a14610736576100f5565b8063708b5eca1461056257806386f5114e14610580578063a3ec138d14610603578063a8d58baf14610682576100f5565b806335d9e409116100d357806335d9e409146104c6578063417d14cb146104e45780635fed5c171461052657806368e1b43114610544576100f5565b80631211a75b146100fa5780631df24d3d146101465780633477ee2e14610339575b600080fd5b6101446004803603608081101561011057600080fd5b8101908080359060200190929190803590602001909291908035906020019092919080359060200190929190505050610784565b005b6103376004803603608081101561015c57600080fd5b810190808035906020019064010000000081111561017957600080fd5b82018360208201111561018b57600080fd5b803590602001918460018302840111640100000000831117156101ad57600080fd5b91908080601f016020809104026020016040519081016040528093929190818152602001838380828437600081840152601f19601f8201169050808301925050505050505091929192908035906020019064010000000081111561021057600080fd5b82018360208201111561022257600080fd5b8035906020019184600183028401116401000000008311171561024457600080fd5b91908080601f016020809104026020016040519081016040528093929190818152602001838380828437600081840152601f19601f820116905080830192505050505050509192919290803590602001906401000000008111156102a757600080fd5b8201836020820111156102b957600080fd5b803590602001918460018302840111640100000000831117156102db57600080fd5b91908080601f016020809104026020016040519081016040528093929190818152602001838380828437600081840152601f19601f8201169050808301925050505050505091929192908035906020019092919050505061199f565b005b6103656004803603602081101561034f57600080fd5b8101908080359060200190929190505050611e14565b60405180868152602001806020018060200180602001858152602001848103845288818151815260200191508051906020019080838360005b838110156103b957808201518184015260208101905061039e565b50505050905090810190601f1680156103e65780820380516001836020036101000a031916815260200191505b50848103835287818151815260200191508051906020019080838360005b8381101561041f578082015181840152602081019050610404565b50505050905090810190601f16801561044c5780820380516001836020036101000a031916815260200191505b50848103825286818151815260200191508051906020019080838360005b8381101561048557808201518184015260208101905061046a565b50505050905090810190601f1680156104b25780820380516001836020036101000a031916815260200191505b509850505050505050505060405180910390f35b6104ce612012565b6040518082815260200191505060405180910390f35b610524600480360360608110156104fa57600080fd5b81019080803590602001909291908035906020019092919080359060200190929190505050612018565b005b61052e6130d2565b6040518082815260200191505060405180910390f35b61054c6130d8565b6040518082815260200191505060405180910390f35b61056a6130de565b6040518082815260200191505060405180910390f35b6105886130e4565b6040518080602001828103825283818151815260200191508051906020019080838360005b838110156105c85780820151818401526020810190506105ad565b50505050905090810190601f1680156105f55780820380516001836020036101000a031916815260200191505b509250505060405180910390f35b6106456004803603602081101561061957600080fd5b81019080803573ffffffffffffffffffffffffffffffffffffffff169060200190929190505050613182565b6040518087815260200186815260200185815260200184815260200183815260200182151515158152602001965050505050505060405180910390f35b61068a6131cb565b6040518082815260200191505060405180910390f35b6106cc600480360360208110156106b657600080fd5b81019080803590602001909291905050506131d1565b005b6106d6613301565b6040518082815260200191505060405180910390f35b6106f4613307565b604051808273ffffffffffffffffffffffffffffffffffffffff1673ffffffffffffffffffffffffffffffffffffffff16815260200191505060405180910390f35b6107826004803603604081101561074c57600080fd5b81019080803573ffffffffffffffffffffffffffffffffffffffff1690602001909291908035906020019092919050505061332d565b005b60035481118015610796575060045481105b6107eb576040517f08c379a00000000000000000000000000000000000000000000000000000000081526004018080602001828103825260398152602001806139136039913960400191505060405180910390fd5b6000841180156107fd57506006548411155b61086f576040517f08c379a00000000000000000000000000000000000000000000000000000000081526004018080602001828103825260118152602001807f43616e64696461746520696e76616c696400000000000000000000000000000081525060200191505060405180910390fd5b60011515600e60003373ffffffffffffffffffffffffffffffffffffffff1673ffffffffffffffffffffffffffffffffffffffff16815260200190815260200160002060060160009054906101000a900460ff16151514801561091457506003600e60003373ffffffffffffffffffffffffffffffffffffffff1673ffffffffffffffffffffffffffffffffffffffff16815260200190815260200160002060000154105b610969576040517f08c379a00000000000000000000000000000000000000000000000000000000081526004018080602001828103825260388152602001806139d46038913960400191505060405180910390fd5b6000600e60003373ffffffffffffffffffffffffffffffffffffffff1673ffffffffffffffffffffffffffffffffffffffff16815260200190815260200160002060050160006001850381526020019081526020016000206001015411610a1b576040517f08c379a000000000000000000000000000000000000000000000000000000000815260040180806020018281038252603a81526020018061399a603a913960400191505060405180910390fd5b610a23613656565b600e60003373ffffffffffffffffffffffffffffffffffffffff1673ffffffffffffffffffffffffffffffffffffffff1681526020019081526020016000206040518060c001604052908160008201548152602001600182015481526020016002820154815260200160038201548152602001600482015481526020016006820160009054906101000a900460ff1615151515815250509050610ac461368e565b600e60003373ffffffffffffffffffffffffffffffffffffffff1673ffffffffffffffffffffffffffffffffffffffff16815260200190815260200160002060050160006001860381526020019081526020016000206040518060400160405290816000820154815260200160018201548152505090507fd13029edcde76ad9022a55453085b104be53c8f29ce3199f94b19445f92db5ab81600001518260200151604051808381526020018281526020019250505060405180910390a160026008541415610c1e5760008160200151905082604001518682856060015103011115610c18576040517f08c379a000000000000000000000000000000000000000000000000000000000815260040180806020018281038252601c8152602001807f596f7520646f6e2774206861766520736f206d616e7920766f7465730000000081525060200191505060405180910390fd5b50610e33565b600080905060008090505b600e60003373ffffffffffffffffffffffffffffffffffffffff1673ffffffffffffffffffffffffffffffffffffffff168152602001908152602001600020600401548111610e30577fd13029edcde76ad9022a55453085b104be53c8f29ce3199f94b19445f92db5ab600e60003373ffffffffffffffffffffffffffffffffffffffff1673ffffffffffffffffffffffffffffffffffffffff16815260200190815260200160002060050160008381526020019081526020016000206000015489604051808381526020018281526020019250505060405180910390a187600e60003373ffffffffffffffffffffffffffffffffffffffff1673ffffffffffffffffffffffffffffffffffffffff168152602001908152602001600020600501600083815260200190815260200160002060000154148015610dc257506000600e60003373ffffffffffffffffffffffffffffffffffffffff1673ffffffffffffffffffffffffffffffffffffffff168152602001908152602001600020600501600083815260200190815260200160002060010154115b15610dcc57600191505b8115610e23576040517f08c379a00000000000000000000000000000000000000000000000000000000081526004018080602001828103825260228152602001806139786022913960400191505060405180910390fd5b8080600101915050610c29565b50505b600e60003373ffffffffffffffffffffffffffffffffffffffff1673ffffffffffffffffffffffffffffffffffffffff16815260200190815260200160002060000160008154809291906001019190505550610e8d6136a8565b600d6000836000015181526020019081526020016000206040518060a001604052908160008201548152602001600182018054600181600116156101000203166002900480601f016020809104026020016040519081016040528092919081815260200182805460018160011615610100020316600290048015610f525780601f10610f2757610100808354040283529160200191610f52565b820191906000526020600020905b815481529060010190602001808311610f3557829003601f168201915b50505050508152602001600282018054600181600116156101000203166002900480601f016020809104026020016040519081016040528092919081815260200182805460018160011615610100020316600290048015610ff45780601f10610fc957610100808354040283529160200191610ff4565b820191906000526020600020905b815481529060010190602001808311610fd757829003601f168201915b50505050508152602001600382018054600181600116156101000203166002900480601f0160208091040260200160405190810160405280929190818152602001828054600181600116156101000203166002900480156110965780601f1061106b57610100808354040283529160200191611096565b820191906000526020600020905b81548152906001019060200180831161107957829003601f168201915b505050505081526020016004820154815250509050816020015181608001818151039150818152505080600d6000846000015181526020019081526020016000206000820151816000015560208201518160010190805190602001906110fd9291906136d7565b50604082015181600201908051906020019061111a9291906136d7565b5060608201518160030190805190602001906111379291906136d7565b50608082015181600401559050508160200151600e60003373ffffffffffffffffffffffffffffffffffffffff1673ffffffffffffffffffffffffffffffffffffffff1681526020019081526020016000206003016000828254039250508190555060016008541415611602576111ac61368e565b6040518060400160405280898152602001600e60003373ffffffffffffffffffffffffffffffffffffffff1673ffffffffffffffffffffffffffffffffffffffff168152602001908152602001600020600101548152509050600e60003373ffffffffffffffffffffffffffffffffffffffff1673ffffffffffffffffffffffffffffffffffffffff16815260200190815260200160002060010154600e60003373ffffffffffffffffffffffffffffffffffffffff1673ffffffffffffffffffffffffffffffffffffffff1681526020019081526020016000206003016000828254019250508190555080600e60003373ffffffffffffffffffffffffffffffffffffffff1673ffffffffffffffffffffffffffffffffffffffff1681526020019081526020016000206005016000600189038152602001908152602001600020600082015181600001556020820151816001015590505061130d6136a8565b600d60008a81526020019081526020016000206040518060a001604052908160008201548152602001600182018054600181600116156101000203166002900480601f0160208091040260200160405190810160405280929190818152602001828054600181600116156101000203166002900480156113ce5780601f106113a3576101008083540402835291602001916113ce565b820191906000526020600020905b8154815290600101906020018083116113b157829003601f168201915b50505050508152602001600282018054600181600116156101000203166002900480601f0160208091040260200160405190810160405280929190818152602001828054600181600116156101000203166002900480156114705780601f1061144557610100808354040283529160200191611470565b820191906000526020600020905b81548152906001019060200180831161145357829003601f168201915b50505050508152602001600382018054600181600116156101000203166002900480601f0160208091040260200160405190810160405280929190818152602001828054600181600116156101000203166002900480156115125780601f106114e757610100808354040283529160200191611512565b820191906000526020600020905b8154815290600101906020018083116114f557829003601f168201915b505050505081526020016004820154815250509050600e60003373ffffffffffffffffffffffffffffffffffffffff1673ffffffffffffffffffffffffffffffffffffffff1681526020019081526020016000206001015481608001818151019150818152505080600d60008b81526020019081526020016000206000820151816000015560208201518160010190805190602001906115b39291906136d7565b5060408201518160020190805190602001906115d09291906136d7565b5060608201518160030190805190602001906115ed9291906136d7565b50608082015181600401559050505050611996565b61160a61368e565b604051806040016040528089815260200188815250905086600e60003373ffffffffffffffffffffffffffffffffffffffff1673ffffffffffffffffffffffffffffffffffffffff1681526020019081526020016000206003016000828254019250508190555080600e60003373ffffffffffffffffffffffffffffffffffffffff1673ffffffffffffffffffffffffffffffffffffffff168152602001908152602001600020600501600060018903815260200190815260200160002060008201518160000155602082015181600101559050506116e76136a8565b600d60008a81526020019081526020016000206040518060a001604052908160008201548152602001600182018054600181600116156101000203166002900480601f0160208091040260200160405190810160405280929190818152602001828054600181600116156101000203166002900480156117a85780601f1061177d576101008083540402835291602001916117a8565b820191906000526020600020905b81548152906001019060200180831161178b57829003601f168201915b50505050508152602001600282018054600181600116156101000203166002900480601f01602080910402602001604051908101604052809291908181526020018280546001816001161561010002031660029004801561184a5780601f1061181f5761010080835404028352916020019161184a565b820191906000526020600020905b81548152906001019060200180831161182d57829003601f168201915b50505050508152602001600382018054600181600116156101000203166002900480601f0160208091040260200160405190810160405280929190818152602001828054600181600116156101000203166002900480156118ec5780601f106118c1576101008083540402835291602001916118ec565b820191906000526020600020905b8154815290600101906020018083116118cf57829003601f168201915b5050505050815260200160048201548152505090508781608001818151019150818152505080600d60008b815260200190815260200160002060008201518160000155602082015181600101908051906020019061194b9291906136d7565b5060408201518160020190805190602001906119689291906136d7565b5060608201518160030190805190602001906119859291906136d7565b506080820151816004015590505050505b50505050505050565b600560009054906101000a900473ffffffffffffffffffffffffffffffffffffffff1673ffffffffffffffffffffffffffffffffffffffff163373ffffffffffffffffffffffffffffffffffffffff1614611a45576040517f08c379a00000000000000000000000000000000000000000000000000000000081526004018080602001828103825260398152602001806138da6039913960400191505060405180910390fd5b60015481118015611a57575060025481105b611aac576040517f08c379a000000000000000000000000000000000000000000000000000000000815260040180806020018281038252604b81526020018061377d604b913960600191505060405180910390fd5b6000845111611b23576040517f08c379a000000000000000000000000000000000000000000000000000000000815260040180806020018281038252601a8152602001807f63616e646964617465206e616d6520697320726571756972656400000000000081525060200191505060405180910390fd5b6000825111611b9a576040517f08c379a000000000000000000000000000000000000000000000000000000000815260040180806020018281038252601a8152602001807f63616e64696461746520496e666f20697320726571756972656400000000000081525060200191505060405180910390fd5b6006600081548092919060010191905055506060604051806080016040528060508152602001613a41605091399050600084511115611bd7578390505b6040518060a0016040528060065481526020018681526020018281526020018481526020016000815250600d60006006548152602001908152602001600020600082015181600001556020820151816001019080519060200190611c3c9291906136d7565b506040820151816002019080519060200190611c599291906136d7565b506060820151816003019080519060200190611c769291906136d7565b50608082015181600401559050507f42b4a8b0927ca539f77ee4b24c6f58d4792eb42d84106e38610d2215acc6e725600654868386600060405180868152602001806020018060200180602001858152602001848103845288818151815260200191508051906020019080838360005b83811015611d01578082015181840152602081019050611ce6565b50505050905090810190601f168015611d2e5780820380516001836020036101000a031916815260200191505b50848103835287818151815260200191508051906020019080838360005b83811015611d67578082015181840152602081019050611d4c565b50505050905090810190601f168015611d945780820380516001836020036101000a031916815260200191505b50848103825286818151815260200191508051906020019080838360005b83811015611dcd578082015181840152602081019050611db2565b50505050905090810190601f168015611dfa5780820380516001836020036101000a031916815260200191505b509850505050505050505060405180910390a15050505050565b600d602052806000526040600020600091509050806000015490806001018054600181600116156101000203166002900480601f016020809104026020016040519081016040528092919081815260200182805460018160011615610100020316600290048015611ec65780601f10611e9b57610100808354040283529160200191611ec6565b820191906000526020600020905b815481529060010190602001808311611ea957829003601f168201915b505050505090806002018054600181600116156101000203166002900480601f016020809104026020016040519081016040528092919081815260200182805460018160011615610100020316600290048015611f645780601f10611f3957610100808354040283529160200191611f64565b820191906000526020600020905b815481529060010190602001808311611f4757829003601f168201915b505050505090806003018054600181600116156101000203166002900480601f0160208091040260200160405190810160405280929190818152602001828054600181600116156101000203166002900480156120025780601f10611fd757610100808354040283529160200191612002565b820191906000526020600020905b815481529060010190602001808311611fe557829003601f168201915b5050505050908060040154905085565b60045481565b6003548111801561202a575060045481105b61207f576040517f08c379a00000000000000000000000000000000000000000000000000000000081526004018080602001828103825260398152602001806139136039913960400191505060405180910390fd5b60008311801561209157506006548311155b612103576040517f08c379a00000000000000000000000000000000000000000000000000000000081526004018080602001828103825260118152602001807f43616e64696461746520696e76616c696400000000000000000000000000000081525060200191505060405180910390fd5b60001515600e60003373ffffffffffffffffffffffffffffffffffffffff1673ffffffffffffffffffffffffffffffffffffffff16815260200190815260200160002060060160009054906101000a900460ff16151514806121a757506003600e60003373ffffffffffffffffffffffffffffffffffffffff1673ffffffffffffffffffffffffffffffffffffffff16815260200190815260200160002060000154105b6121fc576040517f08c379a00000000000000000000000000000000000000000000000000000000081526004018080602001828103825260388152602001806139d46038913960400191505060405180910390fd5b6000600e60003373ffffffffffffffffffffffffffffffffffffffff1673ffffffffffffffffffffffffffffffffffffffff1681526020019081526020016000206001015411612297576040517f08c379a000000000000000000000000000000000000000000000000000000000815260040180806020018281038252602c81526020018061394c602c913960400191505060405180910390fd5b600754600e60003373ffffffffffffffffffffffffffffffffffffffff1673ffffffffffffffffffffffffffffffffffffffff168152602001908152602001600020600401541115612334576040517f08c379a00000000000000000000000000000000000000000000000000000000081526004018080602001828103825260358152602001806138196035913960400191505060405180910390fd5b61233c613656565b600e60003373ffffffffffffffffffffffffffffffffffffffff1673ffffffffffffffffffffffffffffffffffffffff1681526020019081526020016000206040518060c001604052908160008201548152602001600182015481526020016002820154815260200160038201548152602001600482015481526020016006820160009054906101000a900460ff1615151515815250509050600160085414156124a7578060400151600e60003373ffffffffffffffffffffffffffffffffffffffff1673ffffffffffffffffffffffffffffffffffffffff1681526020019081526020016000206001015482606001510111156124a2576040517f08c379a000000000000000000000000000000000000000000000000000000000815260040180806020018281038252601c8152602001807f596f7520646f6e2774206861766520736f206d616e7920766f7465730000000081525060200191505060405180910390fd5b612528565b8060400151838260600151011115612527576040517f08c379a000000000000000000000000000000000000000000000000000000000815260040180806020018281038252601c8152602001807f596f7520646f6e2774206861766520736f206d616e7920766f7465730000000081525060200191505060405180910390fd5b5b600080905060008090505b600e60003373ffffffffffffffffffffffffffffffffffffffff1673ffffffffffffffffffffffffffffffffffffffff168152602001908152602001600020600401548111612681577fd13029edcde76ad9022a55453085b104be53c8f29ce3199f94b19445f92db5ab600e60003373ffffffffffffffffffffffffffffffffffffffff1673ffffffffffffffffffffffffffffffffffffffff16815260200190815260200160002060050160008381526020019081526020016000206000015487604051808381526020018281526020019250505060405180910390a185600e60003373ffffffffffffffffffffffffffffffffffffffff1673ffffffffffffffffffffffffffffffffffffffff168152602001908152602001600020600501600083815260200190815260200160002060000154141561267457600191505b8080600101915050612533565b5080156126d9576040517f08c379a00000000000000000000000000000000000000000000000000000000081526004018080602001828103825260518152602001806137c86051913960600191505060405180910390fd5b600e60003373ffffffffffffffffffffffffffffffffffffffff1673ffffffffffffffffffffffffffffffffffffffff168152602001908152602001600020600401600081548092919060010191905055506001600e60003373ffffffffffffffffffffffffffffffffffffffff1673ffffffffffffffffffffffffffffffffffffffff16815260200190815260200160002060060160006101000a81548160ff02191690831515021790555060016008541415612ce35761279961368e565b6040518060400160405280878152602001600e60003373ffffffffffffffffffffffffffffffffffffffff1673ffffffffffffffffffffffffffffffffffffffff16815260200190815260200160002060010154815250905080600e60003373ffffffffffffffffffffffffffffffffffffffff1673ffffffffffffffffffffffffffffffffffffffff16815260200190815260200160002060050160008560800151815260200190815260200160002060008201518160000155602082015181600101559050507f78ff6e2c7619930709f6e387c14aa9d872e9a589357f3473264b15cb225deae5600e60003373ffffffffffffffffffffffffffffffffffffffff1673ffffffffffffffffffffffffffffffffffffffff16815260200190815260200160002060050160008560800151815260200190815260200160002060000154600e60003373ffffffffffffffffffffffffffffffffffffffff1673ffffffffffffffffffffffffffffffffffffffff16815260200190815260200160002060050160008660800151815260200190815260200160002060010154604051808381526020018281526020019250505060405180910390a1600e60003373ffffffffffffffffffffffffffffffffffffffff1673ffffffffffffffffffffffffffffffffffffffff16815260200190815260200160002060010154600e60003373ffffffffffffffffffffffffffffffffffffffff1673ffffffffffffffffffffffffffffffffffffffff168152602001908152602001600020600301600082825401925050819055506129ee6136a8565b600d60008881526020019081526020016000206040518060a001604052908160008201548152602001600182018054600181600116156101000203166002900480601f016020809104026020016040519081016040528092919081815260200182805460018160011615610100020316600290048015612aaf5780601f10612a8457610100808354040283529160200191612aaf565b820191906000526020600020905b815481529060010190602001808311612a9257829003601f168201915b50505050508152602001600282018054600181600116156101000203166002900480601f016020809104026020016040519081016040528092919081815260200182805460018160011615610100020316600290048015612b515780601f10612b2657610100808354040283529160200191612b51565b820191906000526020600020905b815481529060010190602001808311612b3457829003601f168201915b50505050508152602001600382018054600181600116156101000203166002900480601f016020809104026020016040519081016040528092919081815260200182805460018160011615610100020316600290048015612bf35780601f10612bc857610100808354040283529160200191612bf3565b820191906000526020600020905b815481529060010190602001808311612bd657829003601f168201915b505050505081526020016004820154815250509050600e60003373ffffffffffffffffffffffffffffffffffffffff1673ffffffffffffffffffffffffffffffffffffffff1681526020019081526020016000206001015481608001818151019150818152505080600d6000898152602001908152602001600020600082015181600001556020820151816001019080519060200190612c949291906136d7565b506040820151816002019080519060200190612cb19291906136d7565b506060820151816003019080519060200190612cce9291906136d7565b50608082015181600401559050505050613078565b612ceb61368e565b604051806040016040528087815260200186815250905084600e60003373ffffffffffffffffffffffffffffffffffffffff1673ffffffffffffffffffffffffffffffffffffffff1681526020019081526020016000206003016000828254019250508190555080600e60003373ffffffffffffffffffffffffffffffffffffffff1673ffffffffffffffffffffffffffffffffffffffff1681526020019081526020016000206005016000856080015181526020019081526020016000206000820151816000015560208201518160010155905050612dc96136a8565b600d60008881526020019081526020016000206040518060a001604052908160008201548152602001600182018054600181600116156101000203166002900480601f016020809104026020016040519081016040528092919081815260200182805460018160011615610100020316600290048015612e8a5780601f10612e5f57610100808354040283529160200191612e8a565b820191906000526020600020905b815481529060010190602001808311612e6d57829003601f168201915b50505050508152602001600282018054600181600116156101000203166002900480601f016020809104026020016040519081016040528092919081815260200182805460018160011615610100020316600290048015612f2c5780601f10612f0157610100808354040283529160200191612f2c565b820191906000526020600020905b815481529060010190602001808311612f0f57829003601f168201915b50505050508152602001600382018054600181600116156101000203166002900480601f016020809104026020016040519081016040528092919081815260200182805460018160011615610100020316600290048015612fce5780601f10612fa357610100808354040283529160200191612fce565b820191906000526020600020905b815481529060010190602001808311612fb157829003601f168201915b5050505050815260200160048201548152505090508581608001818151019150818152505080600d600089815260200190815260200160002060008201518160000155602082015181600101908051906020019061302d9291906136d7565b50604082015181600201908051906020019061304a9291906136d7565b5060608201518160030190805190602001906130679291906136d7565b506080820151816004015590505050505b7f6a18ff7aa71af578889dfa3183b3b9531f148d3a1ae37bda99a2bebe8f3b86628583600001518460a001516040518084815260200183815260200182151515158152602001935050505060405180910390a15050505050565b60015481565b60035481565b60065481565b60008054600181600116156101000203166002900480601f01602080910402602001604051908101604052809291908181526020018280546001816001161561010002031660029004801561317a5780601f1061314f5761010080835404028352916020019161317a565b820191906000526020600020905b81548152906001019060200180831161315d57829003601f168201915b505050505081565b600e6020528060005260406000206000915090508060000154908060010154908060020154908060030154908060040154908060060160009054906101000a900460ff16905086565b60025481565b7f07a80fc5817008cdcaae833980d748b1846b5eb7defa76c8589cf20197629d763382600e60003373ffffffffffffffffffffffffffffffffffffffff1673ffffffffffffffffffffffffffffffffffffffff168152602001908152602001600020600501600060018603815260200190815260200160002060000154600e60003373ffffffffffffffffffffffffffffffffffffffff1673ffffffffffffffffffffffffffffffffffffffff168152602001908152602001600020600501600060018703815260200190815260200160002060010154604051808573ffffffffffffffffffffffffffffffffffffffff1673ffffffffffffffffffffffffffffffffffffffff16815260200184815260200183815260200182815260200194505050505060405180910390a150565b600b5481565b600560009054906101000a900473ffffffffffffffffffffffffffffffffffffffff1681565b600560009054906101000a900473ffffffffffffffffffffffffffffffffffffffff1673ffffffffffffffffffffffffffffffffffffffff163373ffffffffffffffffffffffffffffffffffffffff16146133d3576040517f08c379a0000000000000000000000000000000000000000000000000000000008152600401808060200182810382526035815260200180613a0c6035913960400191505060405180910390fd5b600a5481111561342e576040517f08c379a000000000000000000000000000000000000000000000000000000000815260040180806020018281038252603581526020018061384e6035913960400191505060405180910390fd5b60095481600b5401111561348d576040517f08c379a00000000000000000000000000000000000000000000000000000000081526004018080602001828103825260578152602001806138836057913960600191505060405180910390fd5b80600b5401600b819055506134a0613656565b600e60008473ffffffffffffffffffffffffffffffffffffffff1673ffffffffffffffffffffffffffffffffffffffff1681526020019081526020016000206040518060c001604052908160008201548152602001600182015481526020016002820154815260200160038201548152602001600482015481526020016006820160009054906101000a900460ff161515151581525050905081816020018181525050600754820281604001818152505080600e60008573ffffffffffffffffffffffffffffffffffffffff1673ffffffffffffffffffffffffffffffffffffffff168152602001908152602001600020600082015181600001556020820151816001015560408201518160020155606082015181600301556080820151816004015560a08201518160060160006101000a81548160ff0219169083151502179055509050507fbe9a2bbb7c58b500457beaa9aecce20af5c33e40f5ba9ec4740875145cfc61658383604051808373ffffffffffffffffffffffffffffffffffffffff1673ffffffffffffffffffffffffffffffffffffffff1681526020018281526020019250505060405180910390a1505050565b6040518060c0016040528060008152602001600081526020016000815260200160008152602001600081526020016000151581525090565b604051806040016040528060008152602001600081525090565b6040518060a0016040528060008152602001606081526020016060815260200160608152602001600081525090565b828054600181600116156101000203166002900490600052602060002090601f016020900481019282601f1061371857805160ff1916838001178555613746565b82800160010185558215613746579182015b8281111561374557825182559160200191906001019061372a565b5b5090506137539190613757565b5090565b61377991905b8082111561377557600081600090555060010161375d565b5090565b9056fe54686520737461676520666f7220616464696e67206e65772063616e64696464617465206973206e6f742076616c69642c206e6f2063616e6469646174652063616e206265206164646564596f75206861766520766f74656420666f7220746869732063616e6469646174652e20496620796f752077616e7420746f206368616e67652c207468656e20757365206368616e67654d79566f74652829596f752063616e277420766f746520666f7220616e79206d6f7265206e6f6d696e61746f722e20596f752063616e277420766f7465596f752063616e2774206465706c6f792074686973206d616e79207368617265686f6c647320666f72207468697320766f7465722e596f752063616e2774206465706c6f79206d6f7265207368617265686f6c64732c2063757272656e74207368617265686f6c6473206172652067726561746572207468616e20746f74616c207368617265686f6c64732e596f752063616e277420637265617465206e65772063616469646174652e204f6e6c79206465706c6f7965722063616e20646f20746869732e54686520737461676520666f7220766f74696e67206973206e6f742076616c69642c206e6f20766f74652063616e2062652063726561746564596f7520646f6e2774206861766520616e79207368617265686f6c642e20596f752063616e277420766f7465596f75206861766520766f74656420666f7220746869732063616e6469646174652e766f74696e6720696e666f2049442069732077726f6e672c20796f7520686176656e277420766f74656420666f72207468697320706572736f6e596f7520686176652061636365737320796f7572206d617820766f74696e67206d6f64696679696e672074696d657328332074696d657329596f752063616e2774206465706c6f79207368617265686f6c642e4f6e6c79206465706c6f7965722063616e20646f20746869732e68747470733a2f2f656e2e77696b6970656469612e6f72672f77696b692f416e6f6e796d6f75735f2867726f757029232f6d656469612f46696c653a416e6f6e796d6f75735f656d626c656d2e737667a265627a7a72315820c1484ad359e38b6ecf99361ba4ada21bfc7bf83988b11d00c90350925ae6001d64736f6c63430005100032",
  "source": "pragma solidity >=0.4.21 <0.7.0;\n\n//pragma solidity ^0.5.0;\n\n\ncontract Vote {\n    string public voteName;\n    \n    uint256 public addCandidateStartDate;\n    uint256 public addCandidateEndDate;\n    uint256 public voteStartDate;\n    uint256 public voteEndDate;\n    \n    // deployer decide who can vote\n    // deployer decide the shareholds of each Voter\n    address public voteDeployer;\n    \n    // how many people are in the cadidate map\n    uint public totalCandidateNumber = 0;\n    \n    // how many people can be nominated\n    uint maxNominatedNum;\n    \n    // vote type should be straight voting or cumulative voting\n    // 1-> straight voting\n    // 2-> cumulative voting\n    uint voteType=1;\n    \n    // should decide the total shareholds\n    // should decide the threshold of the max sharehold of a Voter\n    // the sharehold cannot be changed after the deployer confirms\n    uint totalShareHold;\n    uint maxSharehold;\n    uint public currentTotalShareHold = 0;\n    \n    // deployer should confirm when finish deploying the sharehold\n    bool comfirm = false;\n    \n    mapping(uint => Candidate) public candidates;\n    mapping(address => Voter) public voters;\n\n    struct Candidate {\n        uint candidateId;\n        string candidateName;\n        string candidatePhoto;\n        string candidateInfo;\n        uint candidateTotalVote;\n    }\n    \n    struct OneVote {\n        uint candidateId;\n        uint voteNum;\n    }\n\n    struct Voter{\n        uint voteTime; // how many times I have changed my voted\n        uint sharehold;\n        uint totalVoteNum; // how many votes do I have\n        uint voteUsed; // how many votes do I use\n        uint numOfPeopleNominated; //  how many people do I nominate\n        mapping (uint => OneVote) myVote; // record for all the nominator I voted\n        bool hasVoted;\n    }\n    \n    event deploySharehold(\n        address voter,\n        uint sharehold\n    );\n    \n    event newVoteRecord(\n        uint candidateId,\n        uint voteNum\n    );\n    \n    event lookForInfo(\n        uint candidateId,\n        uint inputId\n    );\n\n    event addCandidate(\n        uint candidateId,\n        string candidateName,\n        string candidatePhoto,\n        string candidateInfo,\n        uint candidateTotalVote\n    );\n    \n    \n    event vote(\n        uint voteName,\n        uint voteTime,\n        bool hasVoted\n    );\n    \n    event lookUpMyVote(\n        address myAddr,\n        uint recordID,\n        uint candidateID,\n        uint voteNum\n        );\n\n\n// voting process\n// 1. define the candidate, candidate modifying period, voting period, max Nominating Num, total sharehold, max sharehold, and voting type\n// 2. deploy the sharhold for voters, voter without any share hold cannot vote\n// 3. if it's straight voting, then every valid voter can have one vote per share for each nominator\n//    e.g. The voting have 10 candidate, the voting need to select 3 of them to be in board of directors.\n//          Voter Ben has 20 shareholds thus, he can nominate 3 people, and all these three will have 20 votes\n// 4. if it's cumulative voting, then every voter can have voteNum = shareholds*maxNominatedNum, and voter can freely distrubute his votes\n\n    constructor(uint256 _addStartDate, uint256 _addEndDate, uint256 _startDate, uint256 _endDate, uint256 _maxNominatedNum,uint256 _totalShareHold, uint256 _maxSharehold, uint _voteType) public {\n        voteName = \"block chain vote app\";\n        addCandidateStartDate = _addStartDate;\n        addCandidateEndDate = _addEndDate;\n        voteStartDate = _startDate;\n        voteEndDate = _endDate;\n        voteType = _voteType;\n        maxNominatedNum= _maxNominatedNum;\n        voteDeployer = msg.sender;\n        totalShareHold = _totalShareHold;\n        maxSharehold = _maxSharehold;\n    }\n    \n    \n    \n    \n   // this func create a new candidate\n   // name and info of candidate must be not null\n   // default candidate photo url is: https://en.wikipedia.org/wiki/Anonymous_(group)#/media/File:Anonymous_emblem.svg\n   // the current time is the value returned by JS func:\n   // let date = (new Date()).getTime();\n   //let currentDate = date / 1000; \n   // current time shoulb be within the creating new cadidate period\n   // cumulativevoting\n    function createNewCandidate(string memory _cadidateName, string memory _candidatePhoto, string memory _cadidateInfo, uint256 _currentDate) public{\n        require(msg.sender == voteDeployer, \"You can't create new cadidate. Only deployer can do this.\");\n        require(_currentDate > addCandidateStartDate && _currentDate < addCandidateEndDate, \"The stage for adding new candiddate is not valid, no candidate can be added\");\n        require(bytes(_cadidateName).length > 0, \"candidate name is required\");\n        require(bytes(_cadidateInfo).length > 0, \"candidate Info is required\");\n        totalCandidateNumber++;\n        string memory photo = \"https://en.wikipedia.org/wiki/Anonymous_(group)#/media/File:Anonymous_emblem.svg\";\n        if(bytes(_candidatePhoto).length > 0){photo = _candidatePhoto;}\n        candidates[totalCandidateNumber] = Candidate(totalCandidateNumber,_cadidateName,photo,_cadidateInfo,0);\n        emit addCandidate(totalCandidateNumber,_cadidateName,photo,_cadidateInfo,0);\n    }\n    \n    \n    // this func detribute the sharehold\n    // the sharehold of one voter should not greater than max sharehold\n    // the current total sharehold should not greater than total sharehold available\n    // so the vote number should be sharehold*maxNominatedNum if it's cumulative\n    function deployShareHold(address _voterAddr, uint _shareHold) public{\n        require(msg.sender == voteDeployer, \"You can't deploy sharehold.Only deployer can do this.\");\n        require(_shareHold <= maxSharehold, \"You can't deploy this many shareholds for this voter.\");\n        require((currentTotalShareHold+_shareHold) <= totalShareHold, \"You can't deploy more shareholds, current shareholds are greater than total shareholds.\");\n        \n        // add to currentTotalShareHold\n        currentTotalShareHold = currentTotalShareHold+_shareHold;\n        \n        Voter memory _voter =  voters[_voterAddr];\n        \n        _voter.sharehold = _shareHold;\n        \n        _voter.totalVoteNum = _shareHold*maxNominatedNum;\n        // if(voteType==1){\n        //     _voter.totalVoteNum = _shareHold;\n        // }else{\n        //     _voter.totalVoteNum = _shareHold*maxNominatedNum;\n        // }\n        \n        voters[_voterAddr] = _voter;\n        \n        emit deploySharehold(_voterAddr,_shareHold);\n    }\n\n    // this func let voter vote for a candidate\n    // the current time is the value returned by JS func:\n    // let date = (new Date()).getTime();\n    //let currentDate = date / 1000; \n    // current time should be within the voting period\n    // if voter has not voted before, then he can vote\n    // if voter has voted before but voting modifying times < 4 then he can vote again\n    // if numOfPeopleNominated < maxNominatedNum he can voteForCandidate\n    //if voter has sharehold he can voteForCandidate\n    // if voter still has votes left he can vote\n    function voteForCandidate(uint _candidateId, uint _voteNum, uint256 _currentDate) public{\n        require(_currentDate > voteStartDate && _currentDate < voteEndDate, \"The stage for voting is not valid, no vote can be created\");       \n        require(_candidateId > 0 && _candidateId <= totalCandidateNumber, 'Candidate invalid');\n        require(voters[msg.sender].hasVoted == false || voters[msg.sender].voteTime < 3, 'You have access your max voting modifying times(3 times)');\n        require(voters[msg.sender].sharehold > 0 , \"You don't have any sharehold. You can't vote\");\n        require(voters[msg.sender].numOfPeopleNominated <= maxNominatedNum , \"You can't vote for any more nominator. You can't vote\");\n        \n        \n        // get the last voting info\n        Voter memory _voter =  voters[msg.sender];\n        // still has votes left?\n        if(voteType==1){\n            require(_voter.voteUsed+voters[msg.sender].sharehold <= _voter.totalVoteNum, \"You don't have so many votes\");\n        }else{\n            require(_voter.voteUsed+_voteNum <= _voter.totalVoteNum, \"You don't have so many votes\");\n        }\n\n        bool votedForCandidate = false;\n        for(uint i=0;i<=voters[msg.sender].numOfPeopleNominated;i++){\n            emit lookForInfo(voters[msg.sender].myVote[i].candidateId,_candidateId);\n            if(voters[msg.sender].myVote[i].candidateId == _candidateId){\n                votedForCandidate = true;\n             }\n        }\n        require(!votedForCandidate,\"You have voted for this candidate. If you want to change, then use changeMyVote()\");\n           \n\n       \n    // then lets input the new voting info\n        voters[msg.sender].numOfPeopleNominated++;\n        voters[msg.sender].hasVoted = true;\n        \n        if(voteType==1){\n            // straight \n            //vote num = sharehold num\n            OneVote memory myNewVote = OneVote(_candidateId,voters[msg.sender].sharehold);\n\n            voters[msg.sender].myVote[_voter.numOfPeopleNominated] = myNewVote;\n            emit newVoteRecord(voters[msg.sender].myVote[_voter.numOfPeopleNominated].candidateId,voters[msg.sender].myVote[_voter.numOfPeopleNominated].voteNum);\n            \n            voters[msg.sender].voteUsed += voters[msg.sender].sharehold;\n            \n            //voters[msg.sender] = Voter(_voter.voteTime,_voter.sharehold,_voter.totalVoteNum,_voter.voteUsed,_voter.numOfPeopleNominated,myNewVote,true);\n            \n            Candidate memory _cadidate = candidates[_candidateId];\n            _cadidate.candidateTotalVote += voters[msg.sender].sharehold;\n            candidates[_candidateId] = _cadidate;\n        }else{\n            // cumulative \n            // vote num = _newVote\n            OneVote memory myNewVote = OneVote(_candidateId,_voteNum);\n             voters[msg.sender].voteUsed += _voteNum;\n              voters[msg.sender].myVote[_voter.numOfPeopleNominated] = myNewVote;\n           // voters[msg.sender] = _voter;\n            \n            Candidate memory _cadidate = candidates[_candidateId];\n            _cadidate.candidateTotalVote += _voteNum;\n            candidates[_candidateId] = _cadidate;\n            \n        }\n\n        emit vote(_candidateId,_voter.voteTime,_voter.hasVoted);\n    }\n    \n    // this func can let you look up the vote record according to recordID\n    function lookUpVoteRecord(uint _recordId) public{\n        emit lookUpMyVote(msg.sender,_recordId,voters[msg.sender].myVote[_recordId-1].candidateId,voters[msg.sender].myVote[_recordId-1].voteNum);\n     }\n    \n    \n    \n    // this func change the EXISTING record in myVote struct.\n    // this func won't change hte numOfPeopleNominated\n    function changeMyVote(uint _candidateId, uint _newVote, uint _voteInfoNum, uint256 _currentDate) public{\n        require(_currentDate > voteStartDate && _currentDate < voteEndDate, \"The stage for voting is not valid, no vote can be created\");       \n        require(_candidateId > 0 && _candidateId <= totalCandidateNumber, 'Candidate invalid');\n        require(voters[msg.sender].hasVoted == true && voters[msg.sender].voteTime < 3, 'You have access your max voting modifying times(3 times)');\n        require(voters[msg.sender].myVote[_voteInfoNum-1].voteNum > 0, \"voting info ID is wrong, you haven't voted for this person\");\n        \n        // get the last voting info\n        Voter memory _voter = voters[msg.sender];\n\n        OneVote memory _voteToModify =  voters[msg.sender].myVote[_voteInfoNum-1];\n        emit lookForInfo(_voteToModify.candidateId,_voteToModify.voteNum);\n\n        // total voteUsed checking\n        if(voteType==2){\n            uint myLastVoteNum = _voteToModify.voteNum;\n            require(_voter.voteUsed-myLastVoteNum+_newVote<= _voter.totalVoteNum, \"You don't have so many votes\");\n        }else{\n            // if you have vote for this candidate then don't voters\n            bool votedForCandidate = false;\n           for(uint i=0;i<=voters[msg.sender].numOfPeopleNominated;i++){\n            emit lookForInfo(voters[msg.sender].myVote[i].candidateId,_candidateId);\n            if(voters[msg.sender].myVote[i].candidateId == _candidateId && voters[msg.sender].myVote[i].voteNum > 0){\n                votedForCandidate = true;\n             }\n              require(!votedForCandidate,\"You have voted for this candidate.\");\n       \n        }\n        }\n       \n        // now start to modify\n        voters[msg.sender].voteTime++;\n        \n        // last candidate I vote\n        Candidate memory _lastVoteCadidate = candidates[_voteToModify.candidateId];\n         \n         // retrieve the voteNumUsed and the candidate voteNum\n         _lastVoteCadidate.candidateTotalVote  -= _voteToModify.voteNum;\n         candidates[_voteToModify.candidateId] = _lastVoteCadidate;\n         \n         voters[msg.sender].voteUsed -= _voteToModify.voteNum;\n         \n         \n         // now input the new vote info\n         \n        if(voteType==1){\n            // straight \n            //vote num = sharehold num\n            OneVote memory myNewVote = OneVote(_candidateId,voters[msg.sender].sharehold);\n            voters[msg.sender].voteUsed += voters[msg.sender].sharehold;\n            voters[msg.sender].myVote[_voteInfoNum-1] = myNewVote;\n\n            \n            Candidate memory _cadidate = candidates[_candidateId];\n            _cadidate.candidateTotalVote += voters[msg.sender].sharehold;\n            candidates[_candidateId] = _cadidate;\n        }else{\n            // cumulative \n            // vote num = _newVote\n            OneVote memory myNewVote = OneVote(_candidateId,_newVote);\n            voters[msg.sender].voteUsed += _newVote;\n             voters[msg.sender].myVote[_voteInfoNum-1] = myNewVote;\n\n            \n            Candidate memory _cadidate = candidates[_candidateId];\n            _cadidate.candidateTotalVote += _newVote;\n            candidates[_candidateId] = _cadidate;\n            \n        }\n        \n        \n    }\n\n\n\n}",
  "sourcePath": "/Users/apple/Desktop/EECE571G/finalProject/EECE571G_BLOCKCHAIN/contracts/Vote.sol",
  "compiler": {
    "name": "solc",
    "version": "0.5.16+commit.9c3226ce.Emscripten.clang"
  },
  "schemaVersion": "3.0.23",
  "updatedAt": "2020-03-18T22:13:07.080Z",
  "networkType": "ethereum",
  "devdoc": {
    "methods": {}
  },
  "userdoc": {
    "methods": {}
  }
}